S01300005573625472616E736665722E73726563A2
S31500000000E867FE1F5D5D0000D5570000595D0000E2
S31500000010595D0000595D0000595D000000000000B8
S31500000020000000000000000000000000595D000014
S31500000030595D00000000000049800000F1800000CA
S31500000040493F0000790A0000FFFFFFFFFFFFFFFFA7
S31500000050FFFFFFFFFFFFFFFFFFFFFFFFFFFFFFFFAA
S31500000060FFFFFFFFFFFFFFFFFFFFFFFFFFFFFFFF9A
S31500000070FFFFFFFFFFFFFFFFFFFFFFFFFFFFFFFF8A
S31500000080FFFFFFFFFFFFFFFFFFFFFFFFFFFFFFFF7A
S31500000400FFFFFFFFFFFDFFFFFFFFFFFFFFFFFFFFF8
S31500000410FFFFFFFFFFFFFFFFFFFFFFFFFFFFFFFFE6
S31500000420FFFFFFFFFFFFFFFFFFFFFFFFFFFFFFFFD6
S31500000430FFFFFFFFFFFFFFFFFFFFFFFFFFFFFFFFC6
S31500000440FFFFFFFFFFFFFFFFFFFFFFFFFFFFFFFFB6
S31500000450FFFFFFFFFFFFFFFFFFFFFFFFFFFFFFFFA6
S31500000460FFFFFFFFFFFFFFFFFFFFFFFFFFFFFFFF96
S31500000470FFFFFFFFFFFFFFFFFFFFFFFFFFFFFFFF86
S31500000480FFFFFFFFFFFFFFFFFFFFFFFFFFFFFFFF76
S31500000490FFFFFFFFFFFFFFFFFFFFFFFFFFFFFFFF66
S315000004A0FFFFFFFFFFFFFFFFFFFFFFFFFFFFFFFF56
S315000004B0FFFFFFFFFFFFFFFFFFFFFFFFFFFFFFFF46
S315000004C0FFFFFFFFFFFFFFFFFFFFFFFFFFFFFFFF36
S315000004D0FFFFFFFFFFFFFFFFFFFFFFFFFFFFFFFF26
S315000004E0FFFFFFFFFFFFFFFFFFFFFFFFFFFFFFFF16
S315000004F0FFFFFFFFFFFFFFFFFFFFFFFFFFFFFFFF06
S31500000500504CFE1F0C000658044AFE1F61003310B3
S3150000051020000000200001002F0000002F00010035
S315000005200C00010011000000300000003000010046
S31500000530240000002400010024000200240003001F
S31500000540240004002400050013000000170000002A
S315000005502300000021000000210001000700000028
S31500000560070001000700020007000300070004005F
S31500000570070005000700060007000700120000003C
S3150000058044000000080000000B00000041000000CD
S31500000590400000004000010004000000430000008D
S315000005A02B0000002B000A002B000B002B000C0078
S315000005B02B000D002B0001002B0002002B00030076
S315000005C02B0004002B0005002B0006002B00070063
S315000005D02B0008002B0009000600000006000A0098
S315000005E006000B0006000C0006000D0006000E00BB
S315000005F006000F00060001000600020006000300C8
S3150000060006000400060005000600060006000700B6
S31500000610060008000600090015000000150001008C
S3150000062015000200310000002A000000450000000D
S315000006301000000003010000030000000300010099
S315000006400F0000000D0000002D0000004200000019
S315000006502C0000002C0001002C0002002C000300DE
S3150000066032000000280000001800000014000000FE
S31500000670140001001400020014000300140004001A
S3150000068014000500140006001400070014000800FA
S3150000069014000900340000003400010016000000B8
S315000006A0160001003500000036000000360001008B
S315000006B02200000033000000330100002900000082
S315000006C010B5054C237833B9044B13B10448AFF386
S315000006D000800123237010BD7C01FE1F0000000076
S315000006E030C5000008B5034B1BB103490348AFF3FF
S315000006F0008008BD000000008001FE1F30C500001C
S3150000070020B14FF00223036000207047012070479C
S315000007102DE9F04F85B000284BD08846002948D0F7
S3150000072017461C460268414B9A4206463BD1D0F812
S315000007308830002B77D000F1380B2146584606F05A
S315000007403BF98146002859D12246D6F8880008216F
S3150000075009F0B2FAD6F88C408CBB3C46FCB106F1E7
S3150000076094014FF0000A03ABD6F88800CDF80CA030
S315000007708022019109F016FB039D0346381B404475
S31500000780002D41D00199002B3ED1A5422ED92D1B1B
S31500000790381BC6E923544044224608F0ADFD5846AE
S315000007A006F034F901E04FF00709484605B0BDE808
S315000007B0F08F4FF00109484605B0BDE8F08FD6F836
S315000007C09010BC4228BF3C469431224631444046F4
S315000007D008F092FDD6F88C301B1BC6F88C30D6F884
S315000007E090302344C6F890303C1BB7E72A46019167
S315000007F008F082FD641B0199B5D1D0E74FF01409CA
S31500000800484605B0BDE8F08F5846019306F0FEF85D
S31500000810019B0D2B0CBF4FF014094FF0640948469D
S3150000082005B0BDE8F08F4FF06409BEE74D4358555B
S3150000083098B338B502681C4B9A4204462BD005F093
S31500000840F1FCD4F888204AB1251D18493423012229
S31500000850284606F047F898B1642038BD04F16C05C7
S3150000086013491C23284606F0A7F90028F4D14FF4B3
S315000008707A71284606F006FA0028E5D0142038BD1D
S315000008800C493423012204F1380006F02BF830B964
S31500000890054B236038BD082038BD01207047284627
S315000008A006F074F8D8E700BF4D43585518B8000055
S315000008B02CB8000040B8000038B558B10E4B02689D
S315000008C09A42044602D00725284638BD05F092FC18
S315000008D0054610B10125284638BD201D06F056F8FC
S315000008E004F1380006F052F804F16C0006F0B4F991
S315000008F02560284638BD00BF4D435855E0B170B558
S31500000900144B154602689A4204460BD102290BD0B5
S31500000910342000FB01400430294606F04DF848B962
S31500000920002070BD072070BD061D2946304606F022
S3150000093043F818B1142070BD01207047294604F110
S31500000940380006F039F80028EAD0304606F05EF89E
S31500000950142070BD4D435855E8B1174B02689A42B2
S3150000096010B504460ED131B1022916D0013901293C
S315000009700AD9002010BD043006F048F80028F8D047
S31500000980642010BD072010BD04F1380006F03EF8C3
S315000009900028F5D1EDE701207047043006F036F85F
S315000009A0034604F138001C4606F030F8002CE7D167
S315000009B00028E5D1DDE700BF4D4358552DE9F0434A
S315000009C083B000283AD00D46C1B317461E460268CA
S315000009D0284B9A4204462CD1D0F88830002B46D0BA
S315000009E093F87F2012B993F88030EBB104F1040933
S315000009F03146484605F0E0FF8046A8B9324609214F
S31500000A00D4F8880009F058F9D4F88800CDF80480A5
S31500000A103A4601AB294609F03BFA064698B14846E4
S31500000A2005F0F4FF0D2E22D11424204603B0BDE8B4
S31500000A30F0830724204603B0BDE8F0830124204656
S31500000A4003B0BDE8F083D4F8880001AB32462946EE
S31500000A5009F01EFA0446484605F0D8FF0D2CE3D0EF
S31500000A60002C18BF6424204603B0BDE8F08364243C
S31500000A70E0E700BF4D43585510B582B0EFF305804F
S31500000A8006F026FAEFF30383A3F1100040B20193B8
S31500000A9005F03AF8104B1B689968A1B11B690F4C19
S31500000AA0002002E0013088420DD0DA6EA24203F146
S31500000AB09403F7D102F00AFCEFF3058002B0BDE81B
S31500000AC0104006F003BA01F0C9FAEFF3058002B050
S31500000AD0BDE8104006F0FAB9304FFE1F000009408D
S31500000AE0F8B50F4630210446154601F035FC4FF4A3
S31500000AF0E06230210646204601F01EFC3A212046DF
S31500000B0001F02AFC012D10D0BB6801229A4020EA90
S31500000B100202204692B23A2101F028FCB2B22046E7
S31500000B203021BDE8F84001F021BCBA6805FA02F2AE
S31500000B300243EEE7F8B50F4630210446154601F0AC
S31500000B400BFC4FF4E06230210646204601F0F4FB30
S31500000B503821204601F000FC012D10D0BB6801228F
S31500000B609A4020EA0202204692B2382101F0FEFBAA
S31500000B70B2B220463021BDE8F84001F0F7BBBA68B2
S31500000B8005FA02F20243EEE7F8B50F4630210446B5
S31500000B90154601F0E1FB4FF4E0623021064620469F
S31500000BA001F0CAFB3621204601F0D6FB012D10D0FC
S31500000BB0BB6801229A4020EA0202204692B2362100
S31500000BC001F0D4FBB2B220463021BDE8F84001F076
S31500000BD0CDBBBA6805FA02F20243EEE7A1B338B517
S31500000BE0CB68012B05460C461FD9042B11D100F00A
S31500000BF03DFE04280BD802281AD80AD1A3682BB3C5
S31500000C00284601222146FFF7BFFF002038BD0528F0
S31500000C10FCD0214628460022FFF7B6FF28460022D0
S31500000C202146FFF75DFFFF2038BD00F08FFEE0E7AD
S31500000C30214628460022FFF7A7FF28460122214623
S31500000C40FFF74EFF002038BDFF20704701222146E6
S31500000C502846FFF745FFD3E7CB6870B50C46054637
S31500000C601646042B12D8DFE803F02C1D03033B00C5
S31500000C70202101F071FBA26820F4406020F00F00F3
S31500000C80024392B22021284601F070FB0424002181
S31500000C90284601F061FB0421284601F05DFB013C7A
S31500000CA0F5D170BD2C2101F057FBA26820F44060FD
S31500000CB020F00F00024392B22C21284601F056FB89
S31500000CC0E4E7282101F048FBA26820F4406020F008
S31500000CD00F00024392B22821284601F047FBD5E7D0
S31500000CE0202101F039FBA26820F4426020F00F00B9
S31500000CF03243C5E738B58B680C463BB95C2101F039
S31500000D002BFBC30513D4A36AD86938BD05460F2249
S31500000D10642101F011FB22896421284601F026FB9B
S31500000D205C21284601F018FBA36AD869EDE74FF469
S31500000D30807038BD4A692DE9F84F22F080084C23AF
S31500000D4003FB08F30E46C1184A6812F0010914D1D4
S31500000D500433C518B36903F0030342F00102022B02
S31500000D604A600446B560CE623AD0032B1ED04BB122
S31500000D704FF0FF094846BDE8F88F4FF01409484682
S31500000D80BDE8F88FF269C1F8249093098B620423B9
S31500000D90C1F80C900B6192B25E2101F0E7FA314680
S31500000DA0204600F04DF94846BDE8F88F00F5457A33
S31500000DB00627BAB26421204601F0D8FA68212046F7
S31500000DC05AF804BB01F0C8FAC0F3813050EA0B00B0
S31500000DD0A7F1020300F09B8001370A2FE9D1C7E78C
S31500000DE000F5407A0127BAB26421204601F0BEFA26
S31500000DF0682120465AF804BB01F0AEFAC0F38130F0
S31500000E0050EA0B0303D00137062FECD1B0E704EB11
S31500000E1087034C22052FC3F8FC8202FB084244D00C
S31500000E200821FB0053629162D4F824133E4A914292
S31500000E3044D04FF4804A4C2303FB0843DF607269B9
S31500000E4012064AD4D4F83423002A54D0052F52D897
S31500000E50D4F8A823002A51D101221A61C4F8A82384
S31500000E6000272946204600F0CFF8EFF3108572B62A
S31500000E704C2303FB08482046B8F80C20642101F0F7
S31500000E8075FA736903F00F023A434AEA02022046F2
S31500000E9042F08002682101F069FAB28B6C2120468B
S31500000EA001F064FA85F3108879E708212823C2E95E
S31500000EB009311D4AD4F824139142BAD143F4E053C0
S31500000EC09AB26A21204601F051FA4C2303FB0843EB
S31500000ED05B6A872B3FF64CAFABE7D4F8302382B181
S31500000EE0052F0ED8D4F8A42372B91A610123C4F8C9
S31500000EF0A4331027B5E74C2303FB084303221A61EA
S31500000F00AEE74C2303FB084302221A61F1E74C22A9
S31500000F1004EB870102FB0842C1F8FC824FF4004A49
S31500000F20C2E9093087E700BF00000640F8B58C68C3
S31500000F3064212289054601F019FAA16869B9E368B6
S31500000F40002222601BB9C5F8A4330020F8BD012B8E
S31500000F5008BFC5F8A8230020F8BD01F1BE0305EBC4
S31500000F608303002637315E6049003246284601F089
S31500000F70F7F9A268012707FA02F292B24A21284637
S31500000F8001F0E2F9A26807FA02F292B24621284677
S31500000F9001F0DAF9A26807FA02F292B2482128466D
S31500000FA001F0D2F9324621462846FFF7EDFD3246DA
S31500000FB021462846FFF794FD324621462846FFF78C
S31500000FC0B9FDE3689A1E022A0FD93BB1012B13D053
S31500000FD022896821284601F0C9F9B0E74FF480421A
S31500000FE02A21284601F0BCF9F2E74FF4804222217B
S31500000FF0284601F0B5F9EBE74FF480422E2128464A
S3150000100001F0AEF9E4E700BF38B58D68044655B97E
S315000010100322602101F090F96021204601F09CF93D
S315000010208206F9D438BD37356D000322294601F012
S3150000103083F92946204601F08FF98306F9D438BD95
S3150000104000296ED070B58E680D46B1680446002939
S315000010503ED037314900032201F06EF9B1683731CD
S315000010604FF480724900204601F07AF92821204683
S3150000107001F072F9B36800F00F0098424AD02C21B3
S31500001080204601F069F9B36800F00F0098423AD0A3
S315000010902021204601F060F94FF6F07210403289A7
S315000010A020210243204601F061F94FF480422221BB
S315000010B0204601F055F9EB6A1B69022B1DD12B6BFB
S315000010C0012B1AD1696D05F1300007F021FF14E0FC
S315000010D00322602101F030F920464FF4807260212E
S315000010E001F03EF920460F22202101F03FF94FF48E
S315000010F080422221204601F033F9336823F00403AD
S315000011000020336070BD4FF480422E21204601F04E
S3150000111027F9D0E74FF480422A21204601F020F932
S31500001120C9E71420704700BF10B54021044601F0FE
S3150000113013F900F07003702B01D0FF2010BD0520BD
S3150000114007F0EEFF20464FF48072082101F008F9FF
S31500001150002010BD99B110B58C68A16849B902226A
S31500001160602101F0FDF8236843F0040300202360AA
S3150000117010BD37310222490001F0F2F8F3E71420DE
S31500001180704700BF4C2303FB01014868C3074CBFEF
S31500001190C0F38000FF20704770B506460D46FFF786
S315000011A05BFD0824EB68012B13D04FF02A01304673
S315000011B0A3F1020308D801F0CFF800F4005313B9E5
S315000011C0013CEFD1FF2070BD022B4FF02201F2D976
S315000011D0F6E72E21304601F0BFF800F40053EEE7A3
S315000011E04368DBB110B4C268042A83B017D00A88FA
S315000011F0002B92B201920DDD036801A9002211F8BD
S3150000120001CB83F800C0036844680132013394427D
S315000012100360F4DC03B05DF8044B704770470A685E
S315000012200192002BF6DD036801A9002211F801CB1B
S3150000123083F800C00368446801320133A2420360A8
S31500001240F4DB03B05DF8044B704700BF70B50C4685
S3150000125019462368DB070646154624D4636802222E
S31500001260E2605A08A3EB4203C4E901324FF48062FC
S3150000127001F076F81C4BD6F824239A422ED0A668A5
S315000012805EB1206833460246298822F8021B013BDC
S31500001290FAD100EB46002060A36029462046BDE84F
S315000012A07040FFF79DBF002201F05AF80E4BD6F8AA
S315000012B024239A420DD0636853B123682A781A70A2
S315000012C0D4E9003001330138C4E900300028F5D1F3
S315000012D070BD63680335002BEFD1F9E7A6680235C8
S315000012E0002ECED1D9E700BF000006402DE9F0411F
S315000012F0D0F82473174EB74201D0BDE8F0810E68CE
S31500001300B5070C4622D19C464B6815469A08A3EBB6
S315000013108203C4E90132042361464FF40062E360AC
S3150000132001F01EF8A6685EB12068334602462968B9
S3150000133042F8041B013BFAD100EB86002060A36053
S3150000134029462046BDE8F041FFF74ABFBDE8F04117
S31500001350FFF77CBF000006408C461146DCF80020F3
S31500001360D20730B5D0F84C431CD4E5785A08CCF8EF
S3150000137008201FFA82FE012262F30515DCF804201C
S31500001380B2FBF3F30222CCF810309BB2CCF80C205F
S31500001390A4F80EE0E570A3814FF48062BDE830400A
S315000013A000F0DEBF94F803E0DCF80420CCF8083047
S315000013B0B2FBF3F26FF3051ECCF81020012592B2B2
S315000013C09BB2CCF80C50E38184F803E0A281BDE81F
S315000013D03040002200F0C4BF2DE9F041002286B063
S315000013E0D0F8246305460F46FFF7D6FEFF280446CD
S315000013F017D0BB6AC0F30B04D3F81C80BC61394616
S3150000140028460294FFF700FE3C69029B9C420CD2E0
S31500001410029444BB07244FF480422221284600F060
S31500001420A5FF204606B0BDE8F081BBB1B3FBF8F2DC
S3150000143008FB1233002B14BF042402240B4BD5F8EF
S315000014402413FA690192994206F114024FF020031F
S3150000145001A9284604D0FFF7F9FEDCE70424DAE701
S31500001460FFF744FFD7E70724E8E700BF0000064080
S315000014702DE9F047CB68D0F8246386B08946054647
S31500001480002B4BD0012B44D0222714364FF02008D6
S31500001490002249462846FFF77FFEFF2804461AD059
S315000014A0D9F82830C0F30B04D3F81CA0C9F81840AB
S315000014B0494628460294FFF7A7FDD9F81020029B5B
S315000014C09A420CD202920724A2B94FF480423946BE
S315000014D0284600F04BFF204606B0BDE8F0870BB962
S315000014E00424F2E7B3FBFAF20AFB1233002B14BF13
S315000014F004240224D9F81C30D5F8242301930B4B7D
S315000015009A4201A94346324628460CD0FFF79EFE72
S31500001510DBE72E271C364FF02C08B9E72A271836AA
S315000015204FF02808B4E7FFF7E1FECEE700000640DB
S315000015302DE9F0430D4689B0164620220446FFF7F2
S315000015408BFBEB689A1E022A40F2A180002B00F06A
S315000015508B80012B00F0DB80D4F824234FF0220887
S3150000156002F11409202700230496C4F8A033002EA4
S3150000157070D06B48AB6AE969DB690391824200F07F
S3150000158097803A4603A92046FFF7E6FE2946012240
S315000015902046FFF7F9FA624BD4F82423039D9A42BA
S315000015A000F0A2804146204600F0D6FE3946C4F837
S315000015B0A003204600F0D0FE80B2ADF80A00BDF8C8
S315000015C00A3003F00F03ADF80A30BDF80A309BB2BB
S315000015D0C4F8A0330F223946204600F0ADFE2A4655
S315000015E0D4F84C53D4F834C3EB89AE89DCF8000048
S315000015F0DCF808C0B6B20196ED78C5F30115009582
S31500001600DCF824509BB24946A8474FF4805239462D
S31500001610204600F0A5FEBDF80A20394692B22046C3
S3150000162000F09EFEBDF80A1089B2012237319140C2
S31500001630204600F095FE4FF0FF3104F5617007F08B
S3150000164023FF4FF4805205463946204600F074FECB
S31500001650002D58D120464FF48042414600F086FEC8
S31500001660002009B0BDE8F0834FF480422A212046CD
S3150000167000F076FEEB689BB1012B7FF46DAFD4F8DA
S3150000168024234FF02E0802F11C092C276BE74FF498
S3150000169080422221204600F063FEEB68002BEBD14E
S315000016A0D4F824234FF02A0802F1180928275AE70C
S315000016B08A077FF466AFB6FBF3F6D4F84C23079699
S315000016C0D1789B080220059360F30511B6B29BB250
S315000016D004200690D381D170968139464FF400627A
S315000016E0204600F03DFE51E7D4F84C33DB7803F09A
S315000016F03003202B3FF456AF102B0CBF09F1020923
S3150000170009F103094EE7FF2009B0BDE8F0834FF465
S3150000171080422E21204600F023FEEB68ABE700BF97
S3150000172000000640F8B50C4619462368DB07064656
S31500001730154630D463680222E2605A08A3EB4203DE
S31500001740C4E901324FF4806200F00AFED6F8247331
S31500001750214BA6689F423AD076B1206833460246AE
S3150000176032F8021B2980013BFAD11B4AA36000EB29
S315000017704600974220602DD063685BB123681B78D2
S3150000178005F80139D4E9003101330139C4E90031E2
S315000017900029F4D1F8BD002200F0E2FD0E4BD6F888
S315000017A024239A420ED06368002BF3D023681B785B
S315000017B02B70D4E9003101330139C4E90031002925
S315000017C0F5D1F8BD63680335002BEFD1E2E70235AA
S315000017D0002EC2D10335CFE7000006402DE9F041C7
S315000017E00C461546D0F824131F4A9142064606D0E9
S315000017F02A4621463046BDE8F041FFF793BF2268EE
S315000018009207F5D1194663680422E2609A08A3EBB1
S315000018108203C4E901324FF4006200F0A1FDA7681B
S315000018205FB120683B46024652F8041B2960013B23
S31500001830FAD100EB87002060A3600B4BD6F8242377
S315000018409A42636808BF03355BB123681B7805F8C5
S315000018500139D4E900320133013AC4E90032002AE1
S31500001860F4D1BDE8F08100BF0000064030B520226B
S3150000187087B005460C46FFF78FFCFF2817D0A26AF3
S315000018802369D169D5F824238B4212D8E1696361B3
S31500001890CDE901131432202301A92846FFF79EFF44
S315000018A028464FF40042222100F060FD032007B0D5
S315000018B030BDE36901936161284602912023143209
S315000018C001A9FFF78BFF022007B030BD8C461146F9
S315000018D0DCF80020D20730B5D0F838431CD4E578C0
S315000018E05A08CCF808201FFA82FE012262F3051579
S315000018F0DCF80420B2FBF3F30222CCF810309BB2E2
S31500001900CCF80C20A4F80EE0E570A3814FF48062B9
S31500001910BDE8304000F024BD94F803E0DCF8042074
S31500001920CCF80830B2FBF3F26FF3051ECCF81020AA
S31500001930012592B29BB2CCF80C50E38184F803E007
S31500001940A281BDE83040002200F00ABD2DE9F04139
S31500001950002286B006460C46FFF71EFCFF28054609
S3150000196021D021463046FFF7C5F9A26A2369D76917
S31500001970D6F82423BB4298BF1846E36802908CBF72
S315000019800225032503B3012B23D0143220234FF065
S315000019902208E16960610191304601A9FFF71EFF47
S315000019A02369BB4203D3284606B0BDE8F081414611
S315000019B0304600F0D1FC0304F5D44FF40042414612
S315000019C0304600F0CDFCEEE7183228234FF02A0807
S315000019D0DFE71C322C234FF02E08DAE730B5D0F8BB
S315000019E024438E4616498C42844605D0714660468D
S315000019F0BDE83040FFF76ABFDEF800108907F5D171
S31500001A00D0F838431146E5789A08CEF808201FFA30
S31500001A1082FC022262F30515DEF80420B2FBF3F322
S31500001A200422CEF810309BB2CEF80C20A4F80EC0DB
S31500001A30E570A3814FF40062BDE8304000F090BC31
S31500001A40000006402DE9F041884616461946D0F8B2
S31500001A5024232C4B84B09A420A9D044645D0204646
S31500001A6000F07AFC2946C4F8A003204600F074FC76
S31500001A7080B2ADF80E00BDF80E30294603F00F0314
S31500001A8020460F22ADF80E3000F056FCD4F838731D
S31500001A90D4F830C3FB89DCF80000DCF808C0324615
S31500001AA0BE89B6B20196FE78C6F301160096DCF83A
S31500001AB024609BB24146B047294620464FF48052E7
S31500001AC000F04EFCBDF80E202946204692B200F0EA
S31500001AD047FCBDF80E1089B20122373191402046ED
S31500001AE004B0BDE8F04100F03BBCD0F83833DB78F9
S31500001AF003F03003202BB2D0102B0CBF0236033676
S31500001B00ADE700BF00000640002900F090802DE9F7
S31500001B10F047CB688F6A15469A1E022A88B0064699
S31500001B200C4672D9002B76D0012B7AD000222146A2
S31500001B303046FFF731FBFF2863D0E3680495D6F8FB
S31500001B402453002B56D14FF0280818354FF02A0A97
S31500001B50C146A36AE269DB69039203A94A46304695
S31500001B60FFF73CFF2A460399CDF8008053463046DE
S31500001B70FFF768FFF96F06F55A7007F085FC4FF41A
S31500001B80805205462821304600F0D6FB65BB7B6DAA
S31500001B90262B29D04946304600F0DEFBA1683731B6
S31500001BA03046490000F0D8FB4FF4FA65034607E0DB
S31500001BB0A3683733590000F0CFFB013D034638D008
S31500001BC05B043046F4D4D6F830339A681868936AC2
S31500001BD09847A168373130460322490000F0ACFB34
S31500001BE0032008B0BDE8F087002306207B6508B017
S31500001BF0BDE8F0874FF02C081C354FF02E0AC14681
S31500001C00A7E7FF2008B0BDE8F0874FF48042222105
S31500001C1000F0A6FB8AE74FF480422A2100F0A0FBE1
S31500001C2084E74FF480422E2100F09AFB7EE7FF20E6
S31500001C3070470620D5E700BF10B50C464C2100F0D2
S31500001C408BFBC0F30A002060002010BD0B46114636
S31500001C5002685AB10A3BC0690B2B09D8DFE803F0CA
S31500001C6010081216181A1C0C080A140E5520704774
S31500001C7054207047082911D000207047FFF782BA18
S31500001C80FFF7DABF00F01CBEFFF764BA00F072BBC4
S31500001C90FFF750B8FFF74AB9FFF7D2B9FFF744BAD2
S31500001CA02DE9F047B44B8AB0002133228046CDE9B6
S31500001CB003210FCB0DF1180989E80F00AF4B9845AA
S31500001CC000F08B80AE4B984540F0CB800824022173
S31500001CD003A8019103F08CFEAA4B01991B6903A886
S31500001CE004AA98479DF9103013F1210F64D1A64B31
S31500001CF01C680021802363604FF46E72084607F06B
S31500001D0041FA0546002800F0F3800646E061C4F873
S31500001D101080C0F8248346F87C4B9C4BA361B246E6
S31500001D20012404F130035046002249468DF826303E
S31500001D3007F098FB0AF14C0A0746002853D10134F4
S31500001D400A2CEED18E4B98455DD0014601222846DD
S31500001D5000F0F2FA40223946284600F0EDFA874BA9
S31500001D60984500F088804021284600F0F5FA402189
S31500001D700646284600F0F0FA044606F080064021A2
S31500001D80284604F0800400F0E7FAA642EBD100F002
S31500001D9080008642E7D1002E5DD1794B984551D01F
S31500001DA020220021284600F0C7FA744B98457AD0C5
S31500001DB038460AB0BDE8F087002B3BDB74492401A6
S31500001DC0CA18E4B282F800430122580903F01F033F
S31500001DD002FA03F341F8203089E701238DF80D302C
S31500001DE0FF24042174E7012CE2D030354C2303FB99
S31500001DF0045430464C3607F045FBB442F9D1384618
S31500001E000AB0BDE8F08701464FF48062284600F02C
S31500001E10A7FA0021284600F09FFA4205F9D5284680
S31500001E200122002100F088FA40220021284600F015
S31500001E3083FA98E7574A03F00F031A442401E3B2E2
S31500001E40137654E728460822002100F075FA384632
S31500001E500AB0BDE8F08710220021284600F080FA7B
S31500001E609BE702210846322207F0F0F8322738466F
S31500001E700AB0BDE8F08705A803F096FC0F22022100
S31500001E80284600F073FA4FF400423E21284600F03F
S31500001E9053FA059B404ADB6993422BD03F4A934253
S31500001EA05ED0322784E700240F22284602210594BB
S31500001EB000F042FA3A4B05A99B6920469847059BD4
S31500001EC0384A3948A2FB0312520DA0FB030302EB6A
S31500001ED082015B0CB3EB410F88BF0132022A86BF39
S31500001EE0023A92B200220221284600F039FA5FE750
S31500001EF012275DE710223E21284600F01DFA202217
S31500001F003E21284600F02CFA06240421284600F03B
S31500001F1023FA013CF9D101223E21284600F00CFAB1
S31500001F2041F270740421284600F016FA013CF9D1FA
S31500001F3002223E21284600F0FFF94FF480424FF47A
S31500001F408171284600F00CFA0621284600F004FAB2
S31500001F50C307F9D580220021284600F001FA02E7DE
S31500001F60284610223E2100F0FBF920223E21284679
S31500001F7000F0F6F9C8E700BF70B8000000000640A0
S31500001F8000000940C8BE00002C4FFE1F4D1C00007B
S31500001F9000E100E0FCEC00E0002D310100366E01AE
S31500001FA0F8B80000B945511FDBC9921330B583B0AC
S31500001FB0FFF776FE044610B1204603B030BD094B4C
S31500001FC01D6801460122E869019000F0C9F90198EF
S31500001FD04FF45F42302100F0C3F9012320462B6005
S31500001FE003B030BD2C4FFE1F38B51A4D1A492C6868
S31500001FF0D4F8A031012B0CBFD4E94C03D4E94E032D
S315000020000E22C4E94A0304F1240307F095F8E36BB2
S31500002010D4F89810C4F89C1004F15C024FF47A705E
S31500002020C4F8D800C4F89420A367C4F8A0300E21E1
S31500002030A369204698472A68D2F8C42100230221C2
S315000020402366C4F8B410C4F8EC300AB101209047F6
S31500002050002038BD2C4FFE1F3000FE1F2DE9F84F23
S31500002060DFF8D092D9F80080D8F81C5040212846D5
S3150000207000F072F9430407460CD5D9F80030D3F8BE
S31500002080C4310BB1052098474BF6FF724021284614
S3150000209000F06CF93E0400F1D880FC0400F1A98040
S315000020A0780576D4F90545D4BA0514D43B0501D490
S315000020B0BDE8F88FE96A4FF40062303107F0070394
S315000020C0284600F0D5F928464FF2FF72BDE8F84FD2
S315000020D0402100F04BB94821284600F03DF938214F
S315000020E08046284600F038F905F53F76824605F524
S315000020F0497901244FF04C0B04E004364E454FEA73
S315000021004404D3D018EA040FF7D01AEA040FF4D027
S31500002110E243284692B2482100F028F933680BFBC7
S3150000212003534FF40072D96A28463031002300F079
S315000021309FF9E2E74621284600F00EF9362180464F
S31500002140284600F009F905F53F76824605F54979F6
S3150000215001244FF04C0B04E004364E454FEA44048C
S31500002160A2D018EA040FF7D01AEA040FF4D0E2431B
S31500002170284692B2462100F0F9F833680BFB035368
S315000021804FF48072D96A28463031002300F070F986
S31500002190E2E74A21284600F0DFF83A218046284641
S315000021A000F0DAF805F53F76824605F5497901240F
S315000021B04FF04C0B05E004364E454FEA44043FF41D
S315000021C071AF18EA040FF6D01AEA040FF3D0E2430F
S315000021D0284692B24A2100F0C9F833680BFB035334
S315000021E04FF48062D96A28463031002300F040F966
S315000021F0E1E74EF6FF724021284600F0B7F807F0F7
S315000022007003202B62D01AD8002B3FF449AF102B55
S315000022104FD1D8F82030032B71D00821284600F082
S315000022209BF800F00700022863D003285BD0012842
S3150000223053D0FFF7D9FE0123C8F8203030E7302B02
S3150000224037D10323C5F82C332AE747F6FF7240211E
S31500002250284600F08BF84021284600F07DF8402102
S315000022600646284600F078F8044606F08006402127
S31500002270284604F0800400F06FF8A642EBD100F087
S3150000228080008642E7D12A4BD8F810203EB19A4208
S3150000229038D010220021284600F062F8FDE69A4266
S315000022A037D010220021284600F046F806F038FC08
S315000022B0F3E6D8F82030002B3FF4F2AED9F8002030
S315000022C0D2F8C43163B304209847E9E65021284682
S315000022D000F042F8C8F81400E2E6D9F8003000220F
S315000022E0C3F8A021A5E7D9F800300222C3F8A0213F
S315000022F09FE7D9F800300122C3F8A02199E706F03C
S315000023000FFC8AE74FF480720021284600F028F877
S31500002310BFE731464FF48072284600F00DF8C0E75B
S31500002320D2F8AC31002B7FF4BBAE06F0F9FBB7E672
S31500002330000006402C4FFE1FD0F824030B5A23EA58
S3150000234002020A52704700BFD0F82433D243C2F3C8
S3150000235009025A52704700BFD0F82433585A7047C2
S31500002360D0F82433C85A0243CA527047D0F82433EF
S315000023705A527047F8B58B689D680E462A896421C3
S315000023800446FFF7F3FFAB680BB90020F8BD2946FA
S315000023902046FEF739FEA96837314FF4007249002E
S315000023A02046FFF7DDFFA9683731490020464FF484
S315000023B00072FFF7C1FF2221204605E0F36C0133CE
S315000023C04FF02201204603D0FFF7C6FF8304F5D560
S315000023D04FF4804222212046FFF7C2FF4FF480428D
S315000023E02A212046FFF7BCFF002229462046FEF799
S315000023F033FC002229462046FEF7C6FB002229466A
S315000024002046FEF76DFB002229462046FEF792FB8A
S31500002410AA68012707FA02F292B24A212046FFF77C
S3150000242093FFAA6807FA02F292B246212046FFF706
S315000024308BFFAA6807FA02F292B248212046FFF7FC
S3150000244083FFF36C01330ED03368012B9DD1B36A41
S31500002450032B9AD1D4F83033002B96D004F55A705A
S3150000246007F036F891E705F12C0007F031F8EBE7B5
S315000024702DE9F0418F68B2F5006FBE680C4605463F
S3150000248051D0B2F5807F07D0B2F5806F04D04FF0FF
S3150000249000084046BDE8F081A36A022B96F8483052
S315000024A000F0DE8063BBD4F81C80B8F1000F40F06A
S315000024B02D81276D012F40F06B81B368C6F810801F
S315000024C031462846002B40F0C781FFF7CFF9022896
S315000024D00CBF3A46424631462846FEF755FB0122D6
S315000024E031462846FEF7FCFAB168002940F0AD8176
S315000024F0012260212846FFF733FF00232365C8E742
S31500002500B168373128464900FFF726FF4304F7D460
S3150000251021462846FFF72EFF002304222260984614
S3150000252086F84830B5E7013B052BB0D801A252F832
S3150000253023F000BF4D2500008F2400004D2500002C
S315000025408F2400004D250000572600004FF6F77235
S315000025504021FFF70BFF54212846FFF7FDFE81B20D
S3150000256004F1540006F0B8FF56212846FFF7F4FEA2
S3150000257081B204F1560006F0AFFF58212846FFF756
S31500002580EBFE81B204F1580006F0A6FF5A21284658
S31500002590FFF7E2FE04F15A0781B2384606F09CFFC7
S315000025A00023A361636294F954300122002B626018
S315000025B0C0F23A8194F85A3023B994F85B30002B74
S315000025C000F032810223A362384606F083FFE368F7
S315000025D04FF00008C4E90430032260212846C4F8FD
S315000025E01880FFF7A9FEB268012707FA02F292B235
S315000025F04A212846FFF7A8FEB26807FA02F292B20D
S3150000260046212846FFF7A0FE4FF4804222212846A5
S31500002610FFF7ACFE424631462846FEF71DFB3A461A
S3150000262031462846FEF7B0FA3A4660212846FFF7BB
S3150000263097FE94F95430002BC0F2FA8094F85A3081
S3150000264023B994F85B70002F00F01C81022373609D
S315000026504FF000081DE7002373604FF0FF0818E7EE
S31500002660002B40F0D78095F8B033D6F80880FF2BC2
S3150000267000F0AF80FB696269934228BF134633615D
S315000026802369F36131462846B8F1000F6BD1FEF796
S31500002690A3FE02286BD0002231462846FEF774FAC4
S315000026A0B2692369616913442361E3699B1AE36193
S315000026B0A36913448B42A36102D0FB6993427DD088
S315000026C0002767623A4631462846FEF75DFAD6F895
S315000026D00880B8F1000F40F0B0807368022B7FF4D9
S315000026E0D6AE204605F0F2FF03237360E36A0BB112
S315000026F0204698470023E36163610323A362052212
S31500002700736060212846FFF72BFEC2E6FB69B768B7
S31500002710984528BF98462369F361C6F81480314668
S31500002720284657B3FFF712F9314601222846FEF72D
S31500002730D7F93369B168A3EB0803336123694344CE
S315000027402361E369A3EB0803E361A3694344A3613F
S31500002750002936D00122373191402846FFF700FE86
S315000027604FF0000895E6FEF783FE022893D101227A
S3150000277031462846FEF708FA92E7FFF777F802286F
S315000027800CBF01223A4631462846FEF7FDF9CBE753
S31500002790C4F82480424631462846FEF7A1F9B368BC
S315000027A0002B68D17268012A7ED0E36A002B3FF4C1
S315000027B06EAE204698474FF000086AE6B1680029D9
S315000027C0C8D1012260212846FFF7CAFD4FF0000854
S315000027D05FE6D5F8B43343457FF44CAFD5F8A03364
S315000027E03733590003222846FFF7A6FD4FF48052DF
S315000027F02C212846FFF7A0FD002231462846FEF789
S31500002800C3F90023C5F8AC3385F8B033C5F8B43343
S3150000281098463EE621462846FFF7ACFD0423236092
S31500002820002386F848301EE7204605F04FFF00E7F4
S31500002830012373604FF000082BE60223236006F1A4
S315000028402C0006F045FEB84623E6012237319140BA
S315000028502846FFF785FD50E6FFF778F802281DD0D9
S31500002860424631462846FEF78FF93A463146284613
S31500002870FEF736F938E60223236006F12C0006F04F
S3150000288027FE06E60323E7616761A36205227360FC
S3150000289060212846FFF764FDB846FAE53A46314618
S315000028A02846FEF771F91FE60322A262E36163611F
S315000028B02846726060210522FFF752FD75E700BFCA
S315000028C02DE9F84F8F68D7F808B00D46DBF80810E9
S315000028D0044600295BD103226021FFF72DFDDBF8BA
S315000028E00820012606FA02F292B24A212046FFF794
S315000028F02BFDDBF8082006FA02F292B246212046AA
S31500002900FFF722FD9BF848203AB100228BF84820B9
S31500002910DBF83420002A40F0E781AA6A032A40F057
S31500002920C880D4F83023002A6FD0DBF80C20911E23
S3150000293002296AD9012AF8696A6940F2CB828602BD
S31500002940B2FBF6F2C4F86423D4F864230132C4F867
S315000029506423D4F86423002A00F083834FF000092F
S31500002960EA69C846B24208F1010805D2B2FBF0F99D
S3150000297000FB1929A2EB0906002E40F0C981D4F804
S315000029806413414540F23882F8698602EAE7373136
S315000029904900FFF7E1FC40042ED54FF00008DFF8B0
S315000029A0EC96C246DBF80810373120464900FFF79F
S315000029B0D3FCEA6C013206461AD0BAF5006F08EA73
S315000029C0090115D9DBE902034FF4804240EA010808
S315000029D0002B00F01681012B00F079812221204680
S315000029E0FFF7BEFC1FFA88F220212046FFF7BEFC47
S315000029F071040AF1010AD5D4DBF808103731490011
S31500002A0003222046FFF798FC69E76A69F869CBF864
S31500002A101020824228BF02461646EA68CBF81C20E0
S31500002A20594620222046FEF717F9DBF80C20911EA6
S31500002A30022940F2B581002A00F05C81012A00F0EB
S31500002A409782DBF8087059462046002F40F09E8199
S31500002A50FEF70CFF02280CBF01223A4659462046D3
S31500002A60FEF792F8012259462046FEF739F8DBF8C0
S31500002A701020DBF80810921BCBF810202A6932448C
S31500002A802A61AA693244AA61EA69921BEA610029AD
S31500002A9040F06381012260212046FFF761FCDBF8EC
S31500002AA00820002A40F064814FF000084046BDE847
S31500002AB0F88F002259462046FEF766F8002259464E
S31500002AC02046FEF70DF8D4F83423002A00F0C08023
S31500002AD0DBF80C20911E022940F2BA80012A6969AE
S31500002AE0FA6940F2B2809602B1FBF6F1C4F86413BB
S31500002AF0D4F864130131C4F86413D4F864130029BC
S31500002B0000F090814FF0000AD14608E0D4F8642323
S31500002B1009F101094A4540F28B81FA699602E96991
S31500002B20B14205D2B1FBF2FA02FB1A1AA1EB0A0670
S31500002B304FF0FF3384F8B033DBF80810C4F8B41351
S31500002B40233189002046B6FBF2F2C4F8AC234FF4D9
S31500002B508072FFF705FCBBF8082064212046FFF7CA
S31500002B6005FC4FF4806268212046FFF7F9FBDBF88D
S31500002B700810B4F8AC2389008E312046FFF7F6FB27
S31500002B80DBF80810233189004FF400722046FFF766
S31500002B90E7FB002EBAD0324659462046FEF7C8FC5F
S31500002BA0DBF808208046002A40F074813732510055
S31500002BB02046FFF7D1FB420408D5DBF80810373171
S31500002BC049002046FFF7C8FB4304F6D4DBF808109B
S31500002BD03731490003222046FFF7AEFBB8F1000F5C
S31500002BE07FF464AFDBF81020921BCBF810202A6923
S31500002BF032442A61EA69921BEA61AA693244AA61EF
S31500002C0084E700F13701490020464FF40072FFF7D0
S31500002C10A7FBDBF808103731204649004FF4007255
S31500002C20FFF78AFBBBF8082020462821FFF798FB10
S31500002C3020464FF480422A21FFF792FB1FFA88F2C2
S31500002C4028212046FFF792FBD2E691423FF64BAF92
S31500002C50DBF80820002A40F0B180002259462046C1
S31500002C60FDF7FAFFDBF80C20911E022940F29F8047
S31500002C70002A46D0012A00F08281594601222046C8
S31500002C80FDF782FFDBF80810002940F08280012260
S31500002C9060212046FFF764FBDBF80820002A3FF49A
S31500002CA003AFE96C0BF12C0006F0EEFB8046002822
S31500002CB040F08B81D5F82480B8F1000F7FF4F6AE92
S31500002CC02B68232B7FF4F0AE4FF02308EEE6204668
S31500002CD04FF480422E21FFF743FB1FFA88F22C2186
S31500002CE02046FFF743FB83E6E96C0BF12C0006F068
S31500002CF0CBFB12E64FF480422A212046FFF730FB39
S31500002D009FE64FF480422A212046FFF729FBB4E7CD
S31500002D10202259462046FDF79FFF20464FF4804269
S31500002D202A21FFF71DFB2A69CBF81C20594632469B
S31500002D302046FEF7E9FE062800F06481DBF8102045
S31500002D40A969921BCBF810202A6932442A61EA69E4
S31500002D503144921BEA61A96111E6012237319140A3
S31500002D602046FFF7FDFADBF80820002A3FF49CAE68
S31500002D70E96C0BF12C0006F087FB8046002840F03A
S31500002D800581D5F824804046BDE8F88FFEF7DEFDC4
S31500002D9068E60122373191402046FFF7E1FA7BE7EA
S31500002DA04FF4804222212046FFF7DAFA49E64FF433
S31500002DB0804222212046FFF7D3FA5EE7204692B2F0
S31500002DC06421FFF7D3FA20464FF480626821FFF7AB
S31500002DD0B3FADBF80810233120464FF480728900DD
S31500002DE0FFF7BEFADBF8081023314FF400728900B2
S31500002DF02046FFF7A1FA30E7DBF80820012606FA9D
S31500002E0002F292B24A212046FFF79EFADBF808202A
S31500002E1006FA02F292B246212046FFF795FAB9F178
S31500002E20000F5BD10020022368622B6080463DE6DE
S31500002E30BAF1000FF6D0DBF80820002A40F0F38044
S31500002E40002259462046FDF707FF4FF480422E2107
S31500002E502046FFF785FA594601222046FDF794FEE3
S31500002E60DBF80810002940F0D080012260212046BE
S31500002E70FFF776FADBF80820002A3FF415AE4FF08C
S31500002E80FF310BF12C0006F0FFFA804600283FF4D4
S31500002E9011AF0BE692B264212046FFF767FA4FF4B2
S31500002EA0806268212046FFF747FADBF808202332C4
S31500002EB0910020464FF48072FFF752FADBF80820A3
S31500002EC02332910020464FF40072FFF735FADBF803
S31500002ED008206BE682423FF632AD98E5FA69EF6963
S31500002EE0CBF81070974228BF17462A69CBF81C20EA
S31500002EF0594620222046FDF7AFFE4FF480422A2194
S31500002F002046FFF72DFA2A69CBF81C2059462046A1
S31500002F10FDF764FEFF2880463FF4C8ADDBF81020BD
S31500002F20DBF80810D21BCBF810202A693A442A6134
S31500002F30AA693A44AA61EA69D21BEA6100296BD1FF
S31500002F40324660212046FFF70BFADBF80820002AFC
S31500002F503FF4AAADE96C0BF12C0006F095FA804619
S31500002F6000283FF40EAF29462046FFF703FA9DE5F9
S31500002F704FF480422E212046FFF7F2F961E54FF427
S31500002F8080422E212046FFF7EBF976E601228BF8E8
S31500002F904820DBF80820373251002046FFF7DCF9DD
S31500002FA02A68042A09D10DE0DBF8081037314900F8
S31500002FB0FFF7D2F92A68042A04D0DBF83420204629
S31500002FC0002AF1D004232B6070E501228BF84820FB
S31500002FD0DBF80820373251002046FFF7BDF92A6892
S31500002FE0042A09D1EEE7DBF8081037314900FFF76C
S31500002FF0B3F92A68042AE5D0DBF834202046002AF3
S31500003000F1D0DFE74FF00D0850E50122373191404E
S315000030102046FFF7A5F92DE737313246490020460D
S31500003020FFF79EF991E7204692B26421FFF79EF9D9
S3150000303020464FF480626821FFF77EF9DBF808101E
S31500003040233120464FF480728900FFF789F9DBF8B7
S31500003050081023314FF4007289002046FFF76CF9FF
S31500003060EEE6DBF80820012606FA02F2204692B2C6
S315000030704A21FFF769F9DBF8082006FA02F2462131
S3150000308092B22046FFF760F9CCE600BFF0F3FFFFEF
S315000030900C4B1B6810B5DC69102220460021FFF797
S315000030A04BF9D4F82423084B9A4220460CBF082239
S315000030B020220021FFF740F9BDE81040142006F059
S315000030C02FB800BF2C4FFE1F0000094038B5214B1A
S315000030D01B68DC69D4F83053CDB104F55A7006F09C
S315000030E0D1F9D4F830339A681868D3699847D4F878
S315000030F038134B8823F44C43002223F03C034B80C7
S31500003100C4E9CF22C4E9D122051E18BF3425D4F85C
S315000031103433EBB104F5617006F0B4F9D4F8343306
S315000031209A681868D3699847D4F84C134A8822F4E9
S315000031304C42002322F01C024A80C4E9D433C4E97D
S31500003140D6338A78002863F3451218BF34258A706F
S31500003150284638BD2C4FFE1F2DE9F041574A82B054
S3150000316000239042CDE90033054602D0544B9842E5
S315000031707BD1544BD3F80080D8F81C604FF41F4223
S3150000318030213046FFF7D8F8D6F83033002B50D030
S315000031902846FFF79BFF002848D106F17C0406F578
S315000031A04A7720464C3406F06DF9A742F9D1444BD4
S315000031B09D4248D0012200213046FFF7BDF8009B12
S315000031C03E4A03F47F4343F033039542009355D0C0
S315000031D000238DF8013002213B4B01AA1B6968468A
S315000031E098479DF90430002B11DB03F01F015B09A2
S315000031F09B0003F1604303F5614301228A40C3F853
S315000032008021C3F88020BFF34F8FBFF36F8F6846CE
S3150000321002F0C4FB304606F079F80020C8E9000049
S31500003220C8F81C00C8F81000C8F8180002B0BDE8BD
S31500003230F081D6F83433002BAFD02846FFF746FF8F
S315000032400028AAD0F2E74FF4806200213046FFF74B
S3150000325073F8012200213046FFF76EF8009B03F455
S315000032607F4343F033030093B2E70221084634223A
S3150000327005F0ECFE342002B0BDE8F0814FF4804248
S315000032804FF481713046FFF757F88022002130460F
S31500003290FFF752F810223E213046FFF74DF8202264
S315000032A03E213046FFF748F802210F223046FFF74D
S315000032B057F801238DF8013004218DE70000064000
S315000032C0000009402C4FFE1FC8BE00002DE9F04744
S315000032D0B24E33681B69942404FB0034636C4BB90B
S315000032E0656F226CD5F8C830022A03F10103C5F8D0
S315000032F0C83001D0BDE8F0873021284600F0E0F95B
S3150000330032218046284600F0DBF940210746284650
S3150000331000F0D6F900EA0800C5F8CC00422128469C
S3150000332000F0CEF9D5F8CC3038409A04C5F8D00074
S3150000333000F19A81030400F18B81D5F8CC305F054A
S3150000334000F15B81D80500F12D81990500F1FC8023
S31500003350D5F8D0301A0500F1B680DF0476D45804CB
S3150000336047D4590630D4DA0617D49B06C2D5284668
S315000033704FF6DF72422100F0ADF9D5F8DC20636E1E
S31500003380306842F020020133C5F8DC2000F5DC701D
S315000033906366BDE8F04706F09BB84FF6EF72422130
S315000033A0284600F097F9D5F8DC20636E30680133C3
S315000033B042F04002C5F8DC2000F5DC70636606F0DA
S315000033C087F8D5F8D030D0E74FF6BF7242212846AD
S315000033D000F080F9236D3068013323650022032352
S315000033E02B61E030C5F8D42006F072F8D5F8D0305D
S315000033F0B9E74BF6FF724221284600F06BF9D5F883
S31500003400D47007BB2B69012B1DD04FF480423221AB
S31500003410284600F04FF94FF480523221284600F03A
S3150000342053F9236D013323650123C5F8D4302846AB
S315000034303A465E2100F048F930684FF0FF33AB6141
S31500003440E03006F045F8D5F8D0308AE74EF6FF7240
S315000034504221284600F03EF94FF2FF7242212846EB
S3150000346000F038F94FF480523221284600F022F954
S3150000347032214FF40062284600F026F905F58073E4
S3150000348005F5947153F8042F2AB153F8282C42F00D
S31500003490800243F8282C9942F4D1636E30680133D8
S315000034A0636600F5DC7006F013F8236D30680133AF
S315000034B000222365E030C5F8D4202A6106F008F81A
S315000034C0D5F8D0304BE74FF2FF724221284600F084
S315000034D001F94EF6FF724221284600F0FBF804215E
S315000034E0284600F0EDF810F002074FF480724FF016
S315000034F03C01284600F0C98000F0E6F8284B6A68CF
S315000035009A4200F0CF804FF400623221284600F044
S31500003510D1F84FF480523221284600F0D5F8236DB9
S315000035200122134423655E21C5F8D42028460022D3
S3150000353000F0CAF830684FF0FF33AB61E03005F0B9
S31500003540C7FFD5F8D03008E74821284600F0B8F87C
S3150000355005F1DC07814605F5827A4FF001086FEA2E
S31500003560080219EA080F92B24FEA480809D0BB6A66
S315000035701BB13B6843F002033B604821284600F03C
S31500003580A9F80437BA45EAD1636E30680133636639
S3150000359000F5DC7005F09CFFDAE600BF304FFE1F39
S315000035A0000006404621284600F08AF805F1DC07AF
S315000035B0814605F5827A4FF001086FEA080219EA9A
S315000035C0080F92B24FEA480809D0BB6A1BB13B68A4
S315000035D043F001033B604621284600F07BF80437A0
S315000035E0BA45EAD1636E30680133636600F5DC7074
S315000035F005F06EFFD5F8CC30A7E64A21284600F044
S315000036005FF805F1DC07814605F5827A4FF001087F
S315000036106FEA080219EA080F92B24FEA480809D081
S31500003620BB6A1BB13B6843F004033B604A21284652
S3150000363000F050F804375745EAD1636E306801331D
S31500003640636600F5DC7005F043FFD5F8CC3079E60B
S31500003650284647F6FF72422100F03CF8012143223A
S31500003660084605F0F3FC68E64DF6FF724021284651
S3150000367000F030F8636E30680133636600F5DC7085
S3150000368005F026FFD5F8D00054E600F013F8084BF5
S315000036906A689A427FF437AF80223946284600F09E
S315000036A013F830E780220021284600F003F82AE7C5
S315000036B00000064040680B5A23EA02020A5270478D
S315000036C04368585A704700BF4368C85A0243CA52F3
S315000036D0704700BF43685A52704700BF0B4B10B487
S315000036E01C68B4EB102F03D803205DF8044B704719
S315000036F049B15B685DF8044B020A520104330020AD
S31500003700D3580B8070470120EFE700BF3801FE1F3A
S31500003710D2B10E4B10B41C68B4EB102F4FEA102C2C
S3150000372003D803205DF8044B70475B685DF8044BD3
S3150000373022EA01004FEA4C1C08330A4042EA0042E2
S315000037404CF8032000207047032070473801FE1F05
S3150000375012B3124B10B41C68B4EB102F4FEA102CA6
S3150000376003D803205DF8044B70475C684FEA4C1C95
S3150000377002EA010354F80C00034361EA02019AB21B
S31500003780114054F80C20120C1204114344F80C108A
S3150000379000205DF8044B7047032070473801FE1F78
S315000037A00B4B10B41C68B4EB102F03D803205DF844
S315000037B0044B704751B15B685DF8044B020A520135
S315000037C004330020D3581B0C0B8070470120EEE712
S315000037D03801FE1F10B40D4C2368B3EB102F03D82D
S315000037E003205DF8044B7047002AF9D063685DF842
S315000037F0044B4FEA102C083322EA010003EB4C136A
S315000038000A4042EA00425A60002070473801FE1F13
S3150000381020B14FF00223036000207047012070475B
S3150000382038B50488002C4DD043680021043303EBDF
S31500003830C40040F202450C4640F2034C40F2044EEE
S315000038400FE0624530D153F8042C02F0B852B2F1C1
S31500003850807F14BF41F0020144F002040833834222
S3150000386011D01A88AA42ECD153F8042C02F0B852AF
S31500003870B2F1807F03F1080314BF41F0010144F067
S3150000388001048342EDD1C943CDB2012002F014FAFE
S315000038900D4B93F8BB2414432C4083F8BB44012002
S315000038A0BDE8384002F0D8B97245D7D153F8042C98
S315000038B002F0B852B2F1807F0CBF44F0040441F02C
S315000038C00401CBE7FF25E0E700E00140012958D8D5
S315000038D02E4B1A68B2EB102F70B44FEA102409D998
S315000038E09A68C0B252F8245000F110060122B24084
S315000038F02A4202D1032070BC704700EB0410D3E9C2
S31500003900035454F8203000293DD043F00401204EE2
S315000039100E40EFF3108C012383F310881D4B1A8899
S3150000392092B212B9EA704022EA701A88013292B253
S315000039301A808CF3108811F4803F54F8202007D0A9
S3150000394022F4803244F82020134A0A4044F820200A
S3150000395044F82060EFF31081012282F310881A8860
S3150000396092B21AB11A88013A92B21A801B889BB297
S3150000397013B98022EB70EA7081F31088002070BCC6
S3150000398070470320704723F00401C0E73801FE1F8B
S31500003990D5FC011F9801FE1FD5FC001F70B582B033
S315000039A00446002501A80E468DF8045001F0F4FEE9
S315000039B09DF80430DB0713D5202C0ED8012E0CD829
S315000039C0094BDB681A780CBF22EA04041443284624
S315000039D004F030041C7002B070BD032002B070BD4C
S315000039E0062002B070BD00BF3801FE1F002861D05E
S315000039F043682DE9F0470646002B58D0FFF710FF25
S31500003A003388002B50D02C4F2C4A4FF0000C4FF02F
S31500003A10010E4FF0400A4FF080097168F8681FFAEE
S31500003A208CF401EBC40351F834509B883C69190AA5
S31500003A30DBB203EB0113EFF310888EF310881188C5
S31500003A4089B211B9C17080F803A01188013189B219
S31500003A50118088F3108815F4803F54F8231007D09E
S31500003A6021F4803144F8231025F4803144F82310E2
S31500003A7044F82350EFF310818EF3108813889BB21D
S31500003A801BB11388013B9BB2138013889BB213B9F9
S31500003A90C37080F8039081F3108831880CF1010C13
S31500003AA01FFA8CF39942B8D80020BDE8F0870120B0
S31500003AB0BDE8F087012070473801FE1F9801FE1F00
S31500003AC000282ED070B5436886B00446002B2AD055
S31500003AD01649174DCE68092200230192CDE902331B
S31500003AE0CDE9043302A901A8B0470A238DF80430B2
S31500003AF0029B6B60059BAB6002A9BDF80C302B6086
S31500003B0001A8B047012302A98DF8053001A8029B40
S31500003B102B61B047029BEB602046FFF767FF06B0BC
S31500003B2070BD01207047012006B070BDC8BE000000
S31500003B303801FE1F30B4124C2268B2EB102F0CD99C
S31500003B40A268030AC0B252F8235000F1100C0122F9
S31500003B5002FA0CFC1CEA050F02D1032030BC7047A8
S31500003B6051B1226900EB031330BC52F82330C3F382
S31500003B70400300200B707047104630BC704700BFF2
S31500003B803801FE1F30B4154C2368B3EB102F0CD947
S31500003B90A368020AC0B253F8225000F1100C0123A8
S31500003BA003FA0CFC1CEA050F02D1032030BC704757
S31500003BB089B164685201043403FA00F0145982B2E0
S31500003BC000EA1440824214BF0020002030BC0CBF23
S31500003BD00B7008707047184630BC70473801FE1FDE
S31500003BE0174A10B51468B4EB102F0DD9030A946860
S31500003BF0C0B254F8234000F1100C4FF0010E0EFA3B
S31500003C000CFC1CEA040F01D1032010BD7145FBD842
S31500003C1052680CD0083202EB43130EFA00F05968D2
S31500003C2041EA0041090C09045960002010BD083220
S31500003C3002EB431381405868014389B2F4E700BFA1
S31500003C403801FE1F012921D830B4124C2368B3EB8A
S31500003C50102F4FEA10220BD9A368C0B253F8225096
S31500003C6000F1100C012303FA0CFC1CEA050F02D12B
S31500003C70032030BC704703FA00F049B183B2616893
S31500003C8052010831002030BC535070470320704762
S31500003C900304F4E73801FE1F2DE9F0412E4D2B6891
S31500003CA0B3EB102F84B00CD9AB68060AC7B253F831
S31500003CB0263007F110024FF0010808FA02F21A4204
S31500003CC003D1032004B0BDE8F08102ABADF80C00CF
S31500003CD068460C4602910193ADF80080FFF7A0FDFF
S31500003CE0D5E9035107EB0613EFF3108688F3108826
S31500003CF01A48028892B212B9EA704022EA70028823
S31500003D00013292B2028086F31088E60351F823202E
S31500003D1007D522F4803241F8232024F4803241F87A
S31500003D20232041F82340EFF31082012383F3108808
S31500003D3003889BB21BB10388013B9BB203800388B7
S31500003D409BB213B98021EB70E97082F310880020D2
S31500003D5004B0BDE8F08100BF3801FE1F9801FE1FC8
S31500003D6080B1094B02689A420AD110B44468427C79
S31500003D70A35C61F30103A35400205DF8044B704774
S31500003D8007207047012070475543490068B1084B2A
S31500003D9002689A4207D14168427C8B5C43F08003FB
S31500003DA08B5400207047072070470120704700BFE2
S31500003DB05543490068B1084B02689A4207D14168E9
S31500003DC0427C8B5C6FF3C7138B540020704707202F
S31500003DD070470120704700BF5543490020B14FF09E
S31500003DE002230360002070470120704768B3184B18
S31500003DF002689A4225D190F9103013F1210F22D092
S31500003E00002B10B518DB5A09124C0121203203F0A1
S31500003E101F0301FA03F344F82230BFF34F8FBFF3B9
S31500003E206F8F90F91030002B06DB5A0903F01F0044
S31500003E306032814044F82210184601F065FE0020E9
S31500003E4010BD07207047642070470120704700BFEF
S31500003E505543490000E100E020B3144B02689A4242
S31500003E6010B504461AD190F9100010F1210F17D0A1
S31500003E7001F04AFE94F91020002A15DB53099B0035
S31500003E8003F16043012103F5614302F01F0201FAC9
S31500003E9002F2C3F880211A60002010BD072010BD71
S31500003EA0642010BD01207047002010BD5543490015
S31500003EB0002841D010B5214B02689A4282B00446D0
S31500003EC037D190F91000627CADF80620062310F178
S31500003ED0210FADF8043025D0002819DB4209184916
S31500003EE00123203200F01F0003FA00F041F82200FF
S31500003EF0BFF34F8FBFF36F8F94F91000002807DBD5
S31500003F004209603200F01F0C03FA0CF341F822302C
S31500003F1001F0FAFD0B4B94F910101B6853F8313081
S31500003F2000221A6001A801F049FE0020206002B0BC
S31500003F3010BD072002B010BD01207047554349004F
S31500003F4000E100E008BA000000B583B0EFF3058099
S31500003F5002F0BEFFEFF303820F490092A2F11003B5
S31500003F6009685BB251F833301B689A682AB1597CEC
S31500003F70DB686846CDE900319047EFF30383A3F190
S31500003F80100040B2009301F0BFFDEFF3058003B0CF
S31500003F905DF804EB02F09ABF08BA000030B5214B79
S31500003FA083B01446002242801B6901920D4601AA85
S31500003FB0217898479DF904302B7410B913F1210F1D
S31500003FC001D103B030BD627817491201002B096890
S31500003FD0D2B221DB03F1604000F5614080F8002396
S31500003FE051F8331022790D60002AEAD0184601F004
S31500003FF08BFD95F91020002AE3DB53099B0003F1A2
S315000040006043012103F5614302F01F0201FA02F247
S31500004010C3F880211A60D4E7044803F00F0C60440B
S315000040200276DDE7C8BE000008BA0000FCEC00E03E
S3150000403070B586B000294CD00646002849D000232A
S315000040400622CDE90123CDE903330593274B0C4620
S31500004050DB6802A901A898470546002836D1029ACE
S31500004060BDF80E30726013F0040F23780CBF0822DF
S3150000407010229A4235D9A26812B16278FF2A33D04B
S3150000408001A8ADF8063001F06BFD054628BBA36814
S31500004090B360E368F36023787374224601A831465F
S315000040A0FFF77CFF7268737CE078D15C94F805C0FA
S315000040B060F30511D154A078D15C60F30101D154AD
S315000040C0D15C0B486CF3C711D1543060284606B05A
S315000040D070BD0125284606B070BD0825284606B0E5
S315000040E070BD40F27A55F1E70325EFE7C8BE000040
S315000040F055434900034B04301B6823F82010002069
S31500004100704700BF9C01FE1F034B1A68031D002069
S3150000411022F82300704700BF9C01FE1F034B1A685C
S31500004120137843F080030020137070479C01FE1F34
S31500004130034B1A6813786FF3C71300201370704788
S315000041409C01FE1F20B14FF0022303600020704740
S315000041500120704770B586B0002830D01A4A002377
S315000041600B21CDE90113CDE90333D268059304464B
S3150000417002A901A89047054610B1284606B070BDB1
S31500004180124E029B336001A801F032FC62685AB1FC
S31500004190A368306803EB820C598813F8042B0432A9
S315000041A09C4520F82210F7D12378002BE5D0326801
S315000041B01378284643F08003137006B070BD0125BE
S315000041C0284606B070BD00BFC8BE00009C01FE1F99
S315000041D060B1012808D1094B1B680020402141220B
S315000041E0187119711A71704701207047034B1B68CB
S315000041F040214122987099709A7070479C01FE1F69
S31500004200062070470620704720B14FF00223036056
S31500004210002070470120704732490B6893F8282028
S3150000422002F03003102B0CD0202B02D000238B6120
S31500004230704790F82B302C4A9B0932F813305BB943
S315000042407047038D10B403F00303284C34F8133081
S3150000425003BB5DF8044B704707EE903AB8EE677AF9
S31500004260D1ED047A90F82B30F8EE676A03F01F035D
S31500004270C6EE877A07EE103AB8EE477AF7EE006A8E
S3150000428037EE267A67EE877AFCEEE77A17EE903AF3
S315000042908B617047520622D5028D12F0100F0CBFAB
S315000042A00322002201EB820207EE903AD2ED016A68
S315000042B0038D5DF8044BF8EE677AF8EE666AC3F391
S315000042C0052386EEA77A013307EE903AFAEEEF7AE7
S315000042D067EE277AFCEEE77AC1ED067A704703228D
S315000042E0E0E700BF4C01FE1F6CB900007CB900007E
S315000042F051B3062810B429D005280AD004282DD099
S31500004300D8B1012842D0022838D003282ED0032065
S3150000431010E0224C0023E0690B60026AC2F30272CD
S3150000432090F8263003F0070304EB830300205B6854
S31500004330D3400B605DF8044B7047184C0860E06989
S31500004340026AC2F30232EBE701207047134C0023E6
S31500004350E0690B60026AC2F30262E1E70F4C0023D8
S31500004360E0690B60026AC2F30242D9E70B4C0023F4
S31500004370E0690B60026A02F00702D1E7074C0023EE
S31500004380E0690B60026AC2F30212C9E7034C00231C
S31500004390E0690B60026AC2F30222C1E74C01FE1F0C
S315000043A038B5084BDD690446002001F085FC95F818
S315000043B0303064F30003002085F8303001F04CFC07
S315000043C0002038BD4C01FE1F084B10B5DC690020EB
S315000043D001F072FC94F8523043F00103002084F897
S315000043E0523001F039FC002010BD00BF4C01FE1F09
S315000043F0084B10B5DC69002001F05EFC94F85230E1
S315000044006FF30003002084F8523001F025FC0020F1
S3150000441010BD00BF4C01FE1F084B10B5DC69002023
S3150000442001F04AFC94F83E3043F08003002084F803
S315000044303E3001F011FC002010BD00BF4C01FE1FF4
S31500004440084B10B5DC69002001F036FC94F83E30CC
S315000044506FF3C713002084F83E3001F0FDFB002007
S3150000446010BD00BF4C01FE1F084B10B5DC690020D3
S3150000447001F022FC94F8533043F00103002084F845
S31500004480533001F0E9FB002010BD00BF4C01FE1FB8
S31500004490084B10B5DC69002001F00EFC94F853308F
S315000044A06FF30003002084F8533001F0D5FB0020A1
S315000044B010BD00BF4C01FE1F38B5084BDD69044630
S315000044C0002001F0F9FB95F8243064F30613002070
S315000044D085F8243001F0C0FB002038BD4C01FE1FDA
S315000044E030B583B001F0A6F84FF0E02301901D69C6
S315000044F0186910F0020028D0DDED017A164CF8EEAE
S31500004500677AF7EE006A86EEA77A0020186194F8BB
S315000045102320D1B2DFED117ADFED116A27EE277A7B
S31500004520C6EE877AFCEEE77A17EE902A013AB2F1E8
S31500004530807F0CD25A61F02284F8232001F0F0012A
S31500004540072298611A6184F8231003B030BD122047
S315000045501D6103B030BD00BF00ED00E000247449CA
S3150000456000401C4608B1FFF7BBBF0320704700BFE1
S31500004570052827D0144B042870B5DD6904460E467D
S3150000458006D195F88034DB0702D54FF4C87070BDAC
S31500004590002001F091FB95F83E306FF3C71385F8C4
S315000045A03E3095F83E3066F3061385F83E3095F8B2
S315000045B03E3064F30203002085F83E3001F04CFBE8
S315000045C0002070BD032070474C01FE1F38B5002443
S315000045D002F0070261F30E349DF810C09DF8141026
S315000045E062F30A2463F306140E4B6CF302041B6891
S315000045F061F312449DF8181093F82A3061F31E7483
S315000046009DF81C10054661F31A645B0748BF62F308
S315000046101244002001F050FB2C620020BDE8384017
S3150000462001F01ABB4C01FE1F10B5174BDC6994F85C
S315000046304120D00706D494F84130DB074FF0000044
S3150000464010D410BD1A6894F8263092F82820510626
S3150000465003F0070313D4052B01D0032BEBD140F253
S31500004660971010BD01F028FB94F841306FF300035A
S31500004670002084F8413001F0EFFA002010BD228DB1
S31500004680D206EAD4E7E700BF4C01FE1F06207047BA
S31500004690062070470620704706207047024630B352
S315000046A029B3144BDB6993F826C0CCF3020C82F8CD
S315000046B000C01A6AC2F302320A701A6AC2F30222F0
S315000046C04A701A6AC2F302128A701A6AC2F30202A6
S315000046D0CA701A6AC2F302420A711A6AC2F30272F5
S315000046E04A711B6AC3F3026300208B717047012075
S315000046F0704700BF4C01FE1F2DE9F84300295AD030
S31500004700002874D03D4DEB6993F8AA4014F00104DB
S315000047106DD193F8A020196A1C6A1F6A2E68C7F328
S31500004720021C1F6A07F0070E1F6AD3F820901B6A47
S31500004730C3F30268B36802F00302C1F30231C4F3A3
S315000047400224C7F30247C9F3027953B3032A28D1D7
S3150000475033698B422DD8A3422BD8634529D873459C
S3150000476027D84B4525D8BB4223D8434521D80146F7
S31500004770012001F027F8EC69002001F09DFA94F879
S31500004780403043F0800384F8403094F8403043F0E2
S315000047900103002084F8403001F05EFA0020BDE8F5
S315000047A0F883F368002BE2D0022AE0D173698B42CA
S315000047B0D1D90520F3E7114BDD6995F84130DB07C8
S315000047C018D408460C4601F077FA95F8403064F3A1
S315000047D0000385F8403095F8403064F3C71320464F
S315000047E085F8403001F038FA2046BDE8F88301200C
S315000047F0BDE8F8834FF4CB70BDE8F8834C01FE1F8B
S3150000480070B5434D88B0284600F0CEFF414A0023DC
S315000048100321CDE90433CDE906330191D26804A919
S3150000482001A89047049CEC614FF6FF73029394F83D
S315000048303630DE0754D5002001F03EFA94F8A53054
S31500004840062262F3020384F8A530002001F004FA80
S315000048502B68EC69D3E906232B612F4BAB60002054
S315000048604FF400434FF6FF766A60A861EB606B6118
S31500004870029601F021FA94F8803443F0010384F89B
S315000048808034002001F0E8F9EC69039694F880344E
S31500004890D80714D5039BFBB12B68226A93F82250E4
S315000048A094F82630002001F007FA94F88034DB07EC
S315000048B027D4002001F0D0F9002008B070BD039B7A
S315000048C0002BE7D0039B013B039394F88034DA076F
S315000048D0F5D5039B002BDFD14FF4CD7008B070BD2A
S315000048E094F83C30D90708D4029B33B1029B013BB4
S315000048F0029394F83C30D907F6D5029B002B9AD147
S31500004900EAE794F8813423EA050384F88134D0E792
S315000049104C01FE1FC8BE000000127A0005292ED8E1
S31500004920DFE801F00A11181F260390F82A0000F0AC
S31500004930010080F00100704790F8360000F0010099
S3150000494080F00100704790F8380000F0010080F018
S315000049500100704790F8900400F0010080F001001B
S31500004960704790F8320000F0010080F001007047B7
S3150000497090F8800400F0010080F0010070470020EC
S31500004980704700BF052867D870B5554D0446E869DD
S3150000499090F8263003F007039C4282B020D0052B06
S315000049A011D090F82A30DB070DD5012C1CD190F8D8
S315000049B04030DB0978D12146FFF7B0FF002866D1E9
S315000049C0002002B070BD2B6893F828305E0669D5CA
S315000049D0038D13F0100F0CBF032300239C42E4D178
S315000049E040F2911002B070BD2146FFF797FF0028F4
S315000049F0E6D0032CEE693CD0052C07D196F83C3066
S31500004A009B0654D440F2931002B070BD34BB96F8A6
S31500004A103C30D907F6D5204601F04EF996F83630E7
S31500004A2043F0010386F83630002001F015F94FF601
S31500004A30FF73019304E0019B43B1019B013B01938A
S31500004A40E8692146FFF76AFF0028F4D1019B002B95
S31500004A50B6D14FF4CD70B4E703207047002001F0C3
S31500004A602BF9631E042BDFD8DFE803F015320A2B7F
S31500004A70240096F83C301A07C4D5002001F01CF932
S31500004A8096F8323043F0010386F83230CCE7002046
S31500004A90EE6901F011F996F8383043F0010386F813
S31500004AA03830C1E7032399E740F2951089E70020E3
S31500004AB001F002F996F82A3043F0010386F82A300D
S31500004AC0B2E796F8803443F0010386F88034ABE70A
S31500004AD096F8903443F0010386F89034A4E700BFBB
S31500004AE04C01FE1F05281DD808B5431E012B0146A3
S31500004AF008D9042806D068B1032815D005281FD088
S31500004B00002008BD194BD869FFF708FF38B140F2FD
S31500004B10911008BD154AD069FFF700FFF0B94FF4B0
S31500004B20C87008BD03207047104AD069FFF7F6FE2B
S31500004B300028F4D0D36993F83C301B070BD512E05C
S31500004B400A4AD069FFF7EAFE0028E8D0D36993F84D
S31500004B503C30990607D440F2931008BDD36993F808
S31500004B603C30DA07F7D54FF4C97008BD4C01FE1F7B
S31500004B7030B583B04FF6FF730446012001930D460E
S31500004B8001F09AF800230DF103008DF8033000F0D0
S31500004B90CBFC94F8AA30D80605D494F8A030D906F0
S31500004BA0C3F300120AD5019B013B0193019B002B25
S31500004BB0EFD1012001F050F803B030BD94F8AA30CF
S31500004BC04FF6FF7162F3000384F8AA30019102E008
S31500004BD0019B013B019394F8AA30DA0603D494F8BA
S31500004BE0A030DB0602D5019B002BF1D194F8A03052
S31500004BF0042D0CBF43F0030365F3010384F8A030D2
S31500004C004FF6FF73019302E0019B013B019394F879
S31500004C10AA30D80603D494F8A030D90602D5019B51
S31500004C20002BF1D194F8AA30042D0CBF43F00103F8
S31500004C306FF3000384F8AA304FF6FF73019302E086
S31500004C40019B013B019394F8AA30DA0603D494F849
S31500004C50A030DB0602D5019B002BF1D19DF80300A5
S31500004C6000F076FC012000F0F7FF03B030BD00BF76
S31500004C700428124B0ED002280CD01A6892688A4279
S31500004C8007D3D86990F82A30DB0702D50321FFF74E
S31500004C906FBF7047D86990F82A20D207EDD590F8F3
S31500004CA03220D207E9D590F83620D207E5D590F81C
S31500004CB03820D207E1D50421FFF75ABF4C01FE1F69
S31500004CC02DE9F041052888B02BD80C46002900F0C4
S31500004CD0AE800B788A79934223D34978994220D3C0
S31500004CE0E17899421DD8637993421AD3217991428A
S31500004CF017D30428074619D0674EF06990F8263076
S31500004D0003F007039F4228D0002F00F0BC80032F3A
S31500004D1040F0AE8090F83C301A071ED440F293154E
S31500004D2000E00325284608B0BDE8F081134340F0B3
S31500004D30A880594EF06990F84030DB0940F0A18018
S31500004D4090F8263003F00703042B06D03946FFF708
S31500004D50E5FD002800F09D80F069036A036A036A96
S31500004D60036A036A036A036A0021C3F30268FFF752
S31500004D70FFFE00238DF810308DF81C3006EB8703FC
S31500004D80A2795B68D3400593F3691A6A93F82630D3
S31500004D9003F0070306EB8303C2F302625B6804A811
S31500004DA0D340069300F056FC05460028BAD1A379F5
S31500004DB0984541D203936379029323790193E3786B
S31500004DC00093A37862782178F069FFF7FFFBF46916
S31500004DD0284600F071FF94F8263067F30203284650
S31500004DE084F8263000F038FFF3691A6A93F8263003
S31500004DF003F0070306EB8306C2F302627368012120
S31500004E00D34004A88DF81010069300F023FC054645
S31500004E10002887D100F00EFC204B014618600028C0
S31500004E2037D03846FFF724FFFFF75AFB7AE701250C
S31500004E30284608B0BDE8F081D6F81C8000F03CFF9B
S31500004E4098F8263067F30203284688F8263000F0E3
S31500004E5003FFA37903936379029323790193E3789C
S31500004E600093A37862782178F069FFF7AFFBBBE780
S31500004E70052F7FF46BAF90F83C309B063FF56DAF86
S31500004E804CE705254EE790F83C30D9073FF565AF6E
S31500004E9044E74FF4C87545E74C01FE1FEC01FE1FC1
S31500004EA02DE9F0432DED028B042883B0044668D02B
S31500004EB0012800F0498120BBB74DEE6996F83C30D9
S31500004EC0DB0700F1538196F8AA30DF0700F1558120
S31500004ED096F8A030002000F0EFFE96F836306FF31B
S31500004EE0000386F83630002000F0B6FE4FF6FF735A
S31500004EF0EA690193052C1BD8DFE804F0343E392F0C
S31500004F002016032800F0CE8005285BD0A24D002095
S31500004F10EE6900F0D1FEA31E032BE4D8DFE813F000
S31500004F200D0106014400BB0092F82A30DB0709D5C3
S31500004F30019B3BB1019B013B0193DBE792F8803477
S31500004F40D907F5D4019B002B14BF00204FF4CD7078
S31500004F5003B0BDEC028BBDE8F08392F83230DD077A
S31500004F60E6D4EFE792F83630DB07E1D4EAE792F8C9
S31500004F709034DE07DCD4E5E792F83830DF07D7D483
S31500004F80E0E7854D2B68EE6993F82270002000F06B
S31500004F9093FE96F88034D9070DD4002000F05CFE0D
S31500004FA00020EE6900F088FE96F880346FF3000367
S31500004FB086F8803497E796F8813423EA070386F863
S31500004FC08134EAE70E46002900F0EE80724D7278D1
S31500004FD02B6893F824109142C0F0DB8093F82620CA
S31500004FE096ED017A07EE902AF8EE677AF4EEC77A24
S31500004FF0F1EE10FA00F1CD8093F8253007EE903AE5
S31500005000F8EE677AB4EEE77AF1EE10FA00F1C180B5
S315000050103178032902D0002940F0BB80E869FFF708
S315000050207DFC002800F0C280EF6997F83C309906B5
S3150000503000F19C8097F8AA30DA0700F1BA8097F859
S31500005040A03096F80080002000F036FE3B8DB8F1C7
S31500005050030F0CBF6FF3041343F010033B850020CE
S3150000506000F0FAFD2B68EF6993F8283096F8018076
S3150000507003F03003102B00F0D080202B00F09F802F
S315000050803846FFF7C9F8E8690021FFF771FD0020EF
S31500005090EE6900F011FE96F82A306FF3000386F8E9
S315000050A02A3020E73C4DEF6997F83C301E075DD467
S315000050B097F8AA30D80771D497F8A0302B6800204B
S315000050C093F8276093F8208093F8219000F0F4FD80
S315000050D097F8133406FA09F25BB25A4002EA08025C
S315000050E05340DBB287F81334002000F0B5FDEE69BB
S315000050F0002000F0E1FD96F813346FF3861386F86E
S315000051001334002000F0A8FDEE69002000F0D4FD65
S3150000511096F8A230052262F3030386F8A230002037
S3150000512000F09AFD0020EE6900F0C6FD96F83230D8
S315000051306FF3000386F83230D5E696F890346FF3B5
S31500005140000386F89034CEE6134DEE6996F8AA3041
S31500005150DA0718D496F8A030002000F0ADFD96F8D6
S3150000516038306FF3000386F83830BCE640F293100F
S3150000517003B0BDEC028BBDE8F08330460321FFF798
S31500005180F7FCEE69A6E630460321FFF7F1FCEE696F
S31500005190E2E70320DCE600BF4C01FE1F384621464D
S315000051A0FFF7E6FCEF6989E70120D1E64FF4CA7004
S315000051B0CEE638460321FFF7DBFCEF6941E72F4BCC
S315000051C0002033F8188000F077FD97F82B3068F34D
S315000051D0871387F82B30002000F03EFD2B68EF691F
S315000051E093F8283096ED018A03F03003102B2ED069
S315000051F0202B10D1002000F05FFDFCEEC87A97F856
S315000052002B2017EE903A013B63F3040287F82B201C
S31500005210002000F021FDEF6932E7194B002033F83A
S31500005220189000F049FD3B8D69F301033B85002092
S3150000523000F012FD2B6893F8283003F03003202B82
S31500005240BDD0102BEF697FF41BAF96ED018A0020CD
S3150000525000F032FD78EE087A3A8DFCEEE77A00200F
S3150000526017EE903A013B63F30D223A8500F0F4FC09
S315000052702B6893F8283003F03003B9E764B90000CF
S3150000528074B9000005280AD8194A08B5431ED26920
S31500005290042B27D8DFE803F00D21171C0500032097
S315000052A0704792F82A30DB0707D5BDE80840FFF7BC
S315000052B0F7BD92F83830DB07F7D41046FEF7ACFF9F
S315000052C040F2911008BD92F83230DB07EDD4F4E7D6
S315000052D092F88034DB07E8D4EFE792F89034DB07E6
S315000052E0E3D4EAE792F83630DB07DED4E5E700BF21
S315000052F04C01FE1F2DE9F04383B0012801910C46B5
S315000053001CD0022803D0002003B0BDE8F083052995
S31500005310164619D0DFF8A080D8F81C002146FFF702
S31500005320FDFA00283DD1311D2046FFF7B9FD0028C2
S31500005330E9D040F291139842E5D0E5E7084603B07C
S31500005340BDE8F043FFF71EBB1279052A27D8DFF820
S3150000535068801146D8F81C00FFF7E0FA30BB3146EA
S315000053601046FFF79DFDA8B996F804904FF6FE7516
S3150000537040F2931701E0013DC6D04846FFF7B2FB65
S31500005380B842F8D00028C7D06FF4C873C318012BF1
S31500005390C2D9B9E740F291139842E5D0B4E70320A9
S315000053A0B2E7D8F81C00FEF737FFACE7D8F81C00C8
S315000053B0FEF732FFD8E700BF4C01FE1F2DE9F0478C
S315000053C082B0002854D0DFF85C810678D8F81C300B
S315000053D090F815A093F826701A6A1A6A1A6A1A6A59
S315000053E01A6A1A6A1B6AC37C8DF80230037D8DF82F
S315000053F00130C37D8DF803308146837D007E8DF8B4
S3150000540000A0052E07F007078DF804308DF805007B
S3150000541029D806F108036B4413F8083C012B22D067
S31500005420022809D199F80430052B1CD808336B449F
S3150000543013F8083C012B16D04A460521FFF75AFF00
S315000054400446002849D140F29115E1B24A46504639
S315000054500134FFF74FFF08B1A84249D1052C0CD003
S315000054601DF804A0F1E70324204602B0BDE8F0874A
S315000054700124204602B0BDE8F0874FF6FE7540F2E3
S31500005480931A01E0013DEFD03046FFF72BFB504564
S315000054900446F7D020B16FF4C8754319012BE3D841
S315000054A0042E27D0002509F10C013046FFF708FC31
S315000054B004460028D8D1BE4206D007F108036B4443
S315000054C013F8083C012B0ED0002DCDD000F0B2F819
S315000054D001463046FFF7CCFBC6E740F291139842EF
S315000054E0C2D10024AFE73846FFF74CFA0028EBD0CC
S315000054F00446B9E7D8F81C3093F82A20D0070ED511
S3150000550093F83220D1070AD593F83620D20706D56C
S3150000551093F8385005F0010585F00105C3E701252C
S31500005520C1E700BF4C01FE1F034668B1074AB2F847
S315000055300011C1F30001197092F800316FF30003F6
S31500005540002082F8003170470120704700C00140FA
S31500005550104991F8043143F0010381F80431B1F8A0
S3150000556004318446D8070AD54FF0FF3300E07BB1FB
S31500005570B1F80421D20703F1FF33F8D443B1054A49
S3150000558092F800316CF30003002082F80031704776
S315000055901420704700C0014070B5244D82B02B68BE
S315000055A098470120FFF7D4FFAE6800210320B047DB
S315000055B01F4AEC69019240F20313ADF80030032054
S315000055C0A047B0F5C97FFAD169460520B04728B192
S315000055D040F29113984201D000BEEC690520A04725
S315000055E0B0F5C97FFAD10123022200218DF80610F9
S315000055F02C698DF800308DF801208DF802208DF889
S3150000560003308DF805208DF8043069460520A04743
S3150000561000B100BE2B6E04209847AB6A0120984764
S31500005620EB6A9847AB6D984702B070BDF8B80000BA
S315000056300000A04100B5064B83B000229B69019291
S3150000564001A906209847019803B05DF804FB00BF46
S31500005650F8B800000378D3B1012B01D000207047C1
S315000056608368474A017B934254D9464A934266D996
S31500005670454A92F81C3103F007039942EED092F89E
S315000056801C3161F3020382F81C3100207047426826
S315000056903B498A4235D93D4B4FF0F10C10B483F8A3
S315000056A004C0197A374C41F004011972197A41F095
S315000056B008011972197A41F001011972197A41F03B
S315000056C002011972A2424FF0F001197141D983F813
S315000056D004C01A7A42F010021A7219710223037377
S315000056E0294991F81C2102F007029A4205D291F845
S315000056F01C2163F3020281F81C2100205DF8044B93
S31500005700704723498A422AD81F4A037392F81C31EC
S31500005710002070471D4BF1221A711A7A6FF382022C
S315000057201A721A7A6FF3C3021A721A7A6FF30002A8
S315000057301A721A7AF0206FF341021A721871134B1B
S31500005740F1221A711A7AF0206FF304121A72187184
S315000057508EE7104B9A42C1D801230373C0E7012399
S315000057600949037391F81C2102F007029A42BFF41B
S3150000577075AF91F81C2163F3020281F81C216DE7D5
S31500005780000E270700C2EB0B00C0014000200040BE
S3150000579000B4C40400688909037823F0030343F0C6
S315000057A003030370704700BF014B0360704700BFDF
S315000057B084B9000002483022002104F0EDBC00BF8D
S315000057C0A001FE1F024B43F820100020704700BFC7
S315000057D0A001FE1F08B56F4BB3F84031D80700F1A2
S315000057E0CB806C4BB3F84031990700F1B880694B18
S315000057F0B3F840315A0700F1A580664BB3F8403143
S315000058001B0700F19280634BB3F84031D8067FD472
S31500005810604BB3F840315906C3F380106CD45D4B2E
S31500005820B3F840311A065AD45A4BB3F84031DB0567
S3150000583048D4584BB3F84031980536D4554BB3F895
S315000058404031590524D4534BB3F840311A0512D4CC
S31500005850504BB3F84031DB0400D408BD4E4BDB6A35
S315000058600BB10B2098474B4AB2F8303143F48053C2
