S011000074666C6D5F756172742E7372656345
S31500000000F83DFE1FD54500004D400000D1450000DB
S31500000010D1450000D1450000D14500000000000098
S31500000020000000000000000000000000D1450000B4
S31500000030D145000000000000F9C40300A1C503007B
S31500000040AD1D00009D1C0000151D0000651B000075
S31500000050FFFFFFFFFFFFFFFFFFFFFFFFFFFFFFFFAA
S31500000060FFFFFFFFFFFFFFFFFFFFFFFFFFFFFFFF9A
S31500000070FFFFFFFFFFFFFFFFFFFFFFFFFFFFFFFF8A
S31500000080FFFFFFFFFFFFFFFFFFFFFFFFFFFFFFFF7A
S31500000400FFFFFFFFFFFDFFFFFFFFFFFFFFFFFFFFF8
S31500000410FFFFFFFFFFFFFFFFFFFFFFFFFFFFFFFFE6
S31500000420FFFFFFFFFFFFFFFFFFFFFFFFFFFFFFFFD6
S31500000430FFFFFFFFFFFFFFFFFFFFFFFFFFFFFFFFC6
S31500000440FFFFFFFFFFFFFFFFFFFFFFFFFFFFFFFFB6
S31500000450FFFFFFFFFFFFFFFFFFFFFFFFFFFFFFFFA6
S31500000460FFFFFFFFFFFFFFFFFFFFFFFFFFFFFFFF96
S31500000470FFFFFFFFFFFFFFFFFFFFFFFFFFFFFFFF86
S31500000480FFFFFFFFFFFFFFFFFFFFFFFFFFFFFFFF76
S31500000490FFFFFFFFFFFFFFFFFFFFFFFFFFFFFFFF66
S315000004A0FFFFFFFFFFFFFFFFFFFFFFFFFFFFFFFF56
S315000004B0FFFFFFFFFFFFFFFFFFFFFFFFFFFFFFFF46
S315000004C0FFFFFFFFFFFFFFFFFFFFFFFFFFFFFFFF36
S315000004D0FFFFFFFFFFFFFFFFFFFFFFFFFFFFFFFF26
S315000004E0FFFFFFFFFFFFFFFFFFFFFFFFFFFFFFFF16
S315000004F0FFFFFFFFFFFFFFFFFFFFFFFFFFFFFFFF06
S315000005004006FE1F830914084406FE1F80091410C6
S315000005104806FE1F820914204C06FE1F8109142876
S3150000052020000000200001002F0000002F00010025
S315000005300C00010011000000300000003000010036
S31500000540240000002400010024000200240003000F
S31500000550240004002400050013000000170000001A
S315000005602300000021000000210001000700000018
S31500000570070001000700020007000300070004004F
S31500000580070005000700060007000700120000002C
S3150000059044000000080000000B00000041000000BD
S315000005A0400000004000010004000000430000007D
S315000005B02B0000002B000A002B000B002B000C0068
S315000005C02B000D002B0001002B0002002B00030066
S315000005D02B0004002B0005002B0006002B00070053
S315000005E02B0008002B0009000600000006000A0088
S315000005F006000B0006000C0006000D0006000E00AB
S3150000060006000F00060001000600020006000300B7
S3150000061006000400060005000600060006000700A6
S31500000620060008000600090015000000150001007C
S3150000063015000200310000002A00000045000000FD
S315000006401000000003010000030000000300010089
S315000006500F0000000D0000002D0000004200000009
S315000006602C0000002C0001002C0002002C000300CE
S3150000067032000000280000001800000014000000EE
S31500000680140001001400020014000300140004000A
S3150000069014000500140006001400070014000800EA
S315000006A014000900340000003400010016000000A8
S315000006B0160001003500000036000000360001007B
S315000006C02200000033000000330100002900000072
S315000006D010B5054C237833B9044B13B10448AFF376
S315000006E000800123237010BD1C03FE1F00000000C4
S315000006F028DF040008B5034B1BB103490348AFF3D9
S31500000700008008BD000000002003FE1F28DF040053
S315000007104FF0022303600020704700BF8188B1F5C7
S31500000720807F1CD0022938B50446C06818D00B0655
S3150000073000F1940505D428460022BDE838403AF079
S315000007407BB9002204F10801B8303AF0D7FA78B93B
S31500000750A18828460022BDE838403AF06DB97047B6
S3150000076000F1700528460022BDE838403AF064B929
S3150000077028460022BDE838404FF400413AF05CB903
S315000007800368BBB1022970B50446154609D034206A
S3150000079000FB0140083011463AF0D2F940B900207A
S315000007A070BD00F10806114630463AF0C9F918B195
S315000007B0142070BD07207047294604F13C003AF02A
S315000007C0BFF90028EBD030463AF0E4F9142070BDAA
S315000007D0036883B110B5044631B102290DD0013941
S315000007E0012918D9002010BD08303AF0D3F90028A5
S315000007F0F8D0642010BD0720704708303AF0CAF9D7
S31500000800034604F13C001C463AF0C4F9002CF0D132
S315000008100028EED1E6E704F13C003AF0BBF90028E7
S31500000820E7D1DFE72DE9F043044685B01E4623688D
S315000008300020039043B304F108070D4638463146BD
S3150000084090463AF07DF9D0B9A1460323009049F8C5
S31500000850703B012203AB022148463AF0CBF86368AD
S3150000086029469D681868AB6842469847054680B198
S3150000087038463AF08FF9284605B0BDE8F0831425CE
S31500000880284605B0BDE8F0830725284605B0BDE833
S31500000890F083009603AB0122484602213AF0AAF8FB
S315000008A0054630B107280DD038463AF073F964256D
S315000008B0E1E738463AF06EF901232846236005B091
S315000008C0BDE8F08363689A681868D369022198477F
S315000008D005460028CCD138463AF05CF91425CAE71B
S315000008E02DE9F0411C4682B000230193236805469A
S315000008F00F46164600F1B808002201A9404613B17A
S315000009003AF0DCF910B102B0BDE8F0816B685B68C3
S315000009101B7A022B236806D0F31A019AFA5423682D
S31500000920013B2360E8E7F21A019B07F812301A0A26
S315000009302368F31A07EB43035A70F0E72DE9F04FEB
S315000009400546006885B0002868D005F13C0B88464E
S315000009505846194616461F463AF0F2F881460028D0
S3150000096038D10223CDE902062B60324603AB41465D
S315000009702846FFF7B5FF039B002B3ED005F1940AEE
S3150000098002AB012248F2BD01009750463AF032F818
S31500000990044603AB324641462846002C47D1029C0A
S315000009A0802C25D014F0200C18BF4FF00C0C14F03E
S315000009B0080F15D0630729D414F0100F0CBF4FF0A1
S315000009C0C8094FF0C90958463AF0E4F8484605B058
S315000009D0BDE8F08F4FF01409484605B0BDE8F08F2A
S315000009E014F0040F12D1E4061ED4BCF1000F26D178
S315000009F0FFF776FF039B002BC2D158463AF0CAF8A0
S31500000A00012348462B6005B0BDE8F08F14F0100FA7
S31500000A100CBF4FF0CA094FF0C909D4E74FF00709D8
S31500000A20484605B0BDE8F08F4FF0C909CBE7072C63
S31500000A3007D058463AF0AEF84FF06409C6E7E146EB
S31500000A40C1E76B689A681868D3690121984781469F
S31500000A500028B8D158463AF09DF84FF01409B5E78A
S31500000A600368EBB143689A6810B504461868536981
S31500000A70984704F108003AF04DF804F13C003AF0CA
S31500000A8049F804F1700039F09FFF04F1940039F041
S31500000A909BFF04F1B8003AF0FBF80020206010BD7F
S31500000AA0072070472DE9F04F0E68036832684260F0
S31500000AB08FB0002B76D100F108070446484934234D
S31500000AC00122384639F0D2FF04F13C0800284FD104
S31500000AD0444934230122404639F0C8FF04F1700925
S31500000AE0002867D13E492422484639F021FF04F107
S31500000AF0940A00285BD13B492422504639F018FF5E
S31500000B0004F1B80B002839D13C233822CDE9003254
S31500000B10344904F1F003012258463AF057F868BB0D
S31500000B2033685D6805F120030DF1140E0393EB683D
S31500000B3028686968AA68F446ACE80F00039B10357C
S31500000B409D42E646F3D12868CCF800003368626817
S31500000B509B681068244A1B680C9405A90B92984759
S31500000B60054660BB0123284623600FB0BDE8F08F21
S31500000B7004F1700904F1940A04F1B80B384639F00F
S31500000B80C9FF404639F0C6FF484639F01DFF5046BA
S31500000B9039F01AFF58463AF07BF8642528460FB01C
S31500000BA0BDE8F08F082528460FB0BDE8F08F04F1A8
S31500000BB0B80BE3E704F1940A04F1B80BDEE7384614
S31500000BC039F0A8FF404639F0A5FF484639F0FCFE4B
S31500000BD0504639F0F9FE58463AF05AF8DEE700BFBB
S31500000BE038470400444704001D07000020B14FF0B9
S31500000BF0022303600020704701207047836810B508
S31500000C00044623B19A6812B1D26918689047E3681E
S31500000C1033B19A6822B1BDE81040D269186810470E
S31500000C2010BD00BF2DE9F04F89B0CDE9051207933D
S31500000C309DF84C303149129F314C049083F00103EA
S31500000C40020A029300230392019301228846A0FB25
S31500000C5001B91343029A93423ED1059B268803FBB2
S31500000C6006F6049BB3FBF6F2551EFF2D34D802FBA5
S31500000C7006FA334656469A4618E0039BB6FBF3F34C
S31500000C807F2B03FB00F027D90028B8BFFF300012E6
S31500000C90A0F5C330A0380028B8BF4042804522DC0A
S31500000CA0019B3B60A6EB0A06B5B1013D3246F31740
S31500000CB0584649463FF0FAFA002FDED1A0F5C33375
S31500000CC0A03B002BB8BF5B42984505DD079A01970C
S31500000CD01460069A984615700A4B0634A34209D04A
S31500000CE0E3782279B5E7079A0193069B146080465C
S31500000CF01D70D5E7404609B0BDE8F08FA08601001B
S31500000D006C470400BA470400002834D070B50E467C
S31500000D1082B0002931D01F4B42689A42044627D13F
S31500000D2082680023C1E90033002A2ED0CDE90033C2
S31500000D30936810689B6969469847E278009B02F0C1
S31500000D40030202FB03F37360E068C8B183680068BE
S31500000D509B690025CDE9005569469847E278009BD6
S31500000D6002F0030202FB03F32846336002B070BDB3
S31500000D70072002B070BD01207047012002B070BD8F
S31500000D804FF0FF33336002B070BD4FF0FF334B605E
S31500000D90DAE700BF5549435300283DD070B50E46EB
S31500000DA082B049B342B3204B41689942044635D1DB
S31500000DB0C57805F00303022B21D0A3682BB305F0F9
S31500000DC00305013D22FA05F59A6818689269002321
S31500000DD0CDE9003369469047009B9D420CD8A17827
S31500000DE0F9B9A0680123A370846800686468ABB28F
S31500000DF03246A04702B070BD012002B070BD46EA7F
S31500000E000203DB07D9D50320F7E7606B48B9C4E9CD
S31500000E100C62A06302B070BD01207047072002B0CB
S31500000E2070BD082002B070BD5549435390F83C3060
S31500000E30012B00D0704790F83D1082B029B9064BBF
S31500000E40C08F1B6A019302B01847034AC08F126A0B
S31500000E500192194602B01047E04704002DE9F0431D
S31500000E6085B00446DDF8308043F69720804527D8C4
S31500000E7034B3002502A8894617461E468DF8085049
S31500000E8003F0C2F8114B03959B699DF8080003A96E
S31500000E9098470546A0B901230193039800963B465F
S31500000EA04A462146FFF7BEFE40450ADDCDE900650C
S31500000EB003983B464A462146FFF7B4FE804500DAD2
S31500000EC00325284605B0BDE8F08300BF644804004A
S31500000ED0002862D0F0B5344B42689A4287B0044687
S31500000EE01BD1456AAB7813F0030319D1C278059379
S31500000EF012F004062D4AC36A049218BF05AEFF22FB
S31500000F00009308468DF80F20334604AA0DF10F0111
S31500000F10FFF7A4FF38B107B0F0BD072007B0F0BD5A
S31500000F20012007B0F0BDAB78049A9DF80F7003F06E
S31500000F300B03AB70AB78206160F3010392F802E01B
S31500000F4092F803C011795279AB706F70EB796EF33A
S31500000F508613EB71EB796CF30413EB71EB7961F3A8
S31500000F60C303EB712B7862F301032B7046B1336830
S31500000F70FF2B14D8EA79DBB242F00402EA71AB74B3
S31500000F80AB7843F05003AB706378002BC3D1626A31
S31500000F90937843F020039370BDE701207047EB7907
S31500000FA060F38203EB71EBE7554943536C4704004A
S31500000FB0F8B5002800F08E804E4B42689A420446EF
S31500000FC040F0858011F0FD0F0E4604D00625012E57
S31500000FD068D92846F8BD426A937803F07B0393707C
S31500000FE090F9190003F0CCF994F91930002B1ADBAB
S31500000FF0590941482031012203F01F0302FA03F385
S3150000100040F82130BFF34F8FBFF36F8F94F919303B
S31500001010002B08DB590903F01F0302FA03F301F161
S31500001020600240F8223094F91A0003F0A9F994F905
S315000010301A30002B1ADB59092F482031012203F000
S315000010401F0302FA03F340F82130BFF34F8FBFF3BB
S315000010506F8F94F91A30002B08DB590903F01F0330
S3150000106002FA03F301F1600240F82230E568002D30
S3150000107033D0AB682868DB689847637805463BB190
S31500001080626A938A43F004039382938A5907FCD4D5
S315000010900023C4E904332046FFF7C8FE002D98D18B
S315000010A0012E96D8A56815B30023A370AB682868EF
S315000010B0DB68984705466378002B8AD0636ADA8A2C
S315000010C0D20686D09A8A42F002029A8281E70725E2
S315000010D02846F8BD01252846F8BD6778002FCFD1F0
S315000010E0C4E904772046FFF7A1FE3D466FE7A563F6
S315000010F06563E0E75549435300E100E02DE9F0411F
S315000011001F4682B01B4B089D1B69144600220192A4
S3150000111001AA98479DF904602E700546E0B9002E95
S315000011201EDB7309DFF85880203306F01F01012209
S315000011308A4048F82320BFF34F8FBFF36F8F2401F7
S31500001140B0443046E4B203F01BF988F800430A4B7A
S315000011501B6853F836301F60284602B0BDE8F081A0
S31500001160304603F00DF92401044B06F00F02E4B2F9
S315000011709C54ECE7C8D004007449040014ED00E068
S3150000118000E100E0002879D030B53D4B42689A4234
S3150000119083B004466FD1436A9A78002102F00B02AD
S315000011A041609A7090F918208A420DDB5109354D3D
S315000011B02031012002F01F0200FA02F245F8212038
S315000011C0BFF34F8FBFF36F8F94F91B20002A3FDACE
S315000011D094F91920002A0DDB51092A4D20310120EE
S315000011E002F01F0200FA02F245F82120BFF34F8FEA
S315000011F0BFF36F8F94F91A20002A0DDB5109214D98
S315000012002031012002F01F0200FA02F245F82120E7
S31500001210BFF34F8FBFF36F8F99789A7801F0020171
S3150000122061F30102002520469A70FFF7E7FC227859
S31500001230E5611423A56201A8ADF80620ADF80430D7
S3150000124002F0E8FF01A803F0F5F8284603B030BD28
S3150000125051090C4D2031012002F01F0200FA02F262
S3150000126045F82120BFF34F8FBFF36F8F94F91920F4
S31500001270002AB1DABEE7072003B030BD012070476F
S315000012805549435300E100E02DE9F04F97B000289F
S3150000129078D00E46002975D03D4B42689A420446E6
S315000012A000F05F820A78DFF8F480ADF82220002390
S315000012B01422CDE90D33CDE90F33ADF82020D8F84F
S315000012C00C300DA908A89847054618B1284617B04E
S315000012D0BDE8F08F0D9F676208A803F07DF805460C
S315000012E00028F3D1BDF83A302A4A0990C3F38103A6
S315000012F0D35C6370D6F8209042F21073E362B9F1C2
S31500001300000F00F0198299F80C3099F800B0002B04
S3150000131040F029820293E27863F38202E2701E4A69
S31500001320D9F810300A92FF227068E3628DF81F2008
S31500001330BBF1000F00F0088204F11B030093F27B5F
S315000013402346012108A8FFF7D9FE04F118030093EC
S31500001350327B2346022108A8FFF7D0FE054650B986
S3150000136004F119030093727B2346052108A8FFF7B1
S31500001370C5FE0546A0B12046FFF740FC08A803F0CD
S3150000138059F8A3E70125284617B0BDE8F08F00BF3E
S3150000139055494353BC4704006C470400C8D00400B9
S315000013A004F11A030093B27B2346042108A8FFF731
S315000013B0A5FE05460028DED1E378D6F810C0D6F89B
S315000013C014E0C4F808C0012262F30103E370C4F814
S315000013D00CE0337A0393022B00F0C881BCF1000FB6
S315000013E06BD0DCF804A011AB9E460493DCF8083001
S315000013F00593BAE80F00AEE80F00DAF80030CEF831
S315000014000030059B002B00F00382DCF80030002B37
S3150000141000F00582DCF80430002B00F0F981196831
S31500001420002900F0FC81039B4888A3F10203B3FA6C
S3150000143083F340F6DF7202405B0942EA03334B80D6
S315000014403378ADF832304FF0000A1423ADF830305F
S31500001450CDF82CA0D8F810300BAA02210CA898477A
S315000014609DF92C30213300F0D381326963785168BD
S315000014708DF84AA00868BDF82E10ADF84810002B6C
S3150000148000F0E081E378616A03F00303022B00F0C9
S31500001490D78111314388416023F4406323F00C0364
S315000014A043F0080343809368049910681B689847C3
S315000014B0002840F0B581D6F814E0BEF1000F6BD0DD
S315000014C0DEF804A011AB9C460493DEF808300393C3
S315000014D0BAE80F00ACE80F00DAF80030CCF80030BC
S315000014E0039B002B00F09481DEF80030002B00F007
S315000014F08F81DEF80430002B00F08A8119680029FC
S3150000150000F08681327AB1F802C0D8F81030A2F124
S315000015100200B0FA80F040F6DF72400902EA0C02DF
S3150000152042EA00324A803278ADF832204FF00008A5
S315000015301422ADF83020CDF82C800BAA05210CA87A
S3150000154098479DF92C30213300F0628172696378E7
S3150000155051688DF84A800868BDF82E10ADF848101D
S31500001560002B00F07981E178636A01F0030102291A
S3150000157000F070810F3383604388049923F440633D
S3150000158023F00C0343F400634380936810681B68E0
S315000015909847002840F0448199F8143084F83C308C
S315000015A099F8153084F83D30B9F81630E3872046AF
S315000015B0FFF73CFC08A802F057FE00233B70BB7007
S315000015C03A7902B13B71F221B9710023FF224FF43F
S315000015D078417A70BA74FB713B727B72BB72FB7294
S315000015E03B737B733B73B98240217B83F974032180
S315000015F0397706213977BBF1000F40F0E680BB78DA
S315000016000A9A9DF81FE092F802C0D07811795279B3
S315000016106BF30103BB7087F801E0FB796CF386136B
S31500001620FB71FB7960F30413FB71FB7961F3C30370
S31500001630FB713B7862F301033B70029B4BB11B6865
S31500001640FF2B00F2E780FA79DBB242F00402FA716E
S31500001650BB746278636A002A40F09280306A1A7816
S31500001660717A42EA0112D2B21A70327A012A00F075
S31500001670C680022A07D11A786FF386121A709A79F1
S315000016806FF304129A711A78B17A61F3C3021A7071
S31500001690F27A1AB15A7B42F002025A7390B1DA79A1
S315000016A0817861F3C712DA71DA79C17861F345128C
S315000016B0DA71002241781A729A7811439A7861F3A6
S315000016C001029A7033782370D6E906232362002339
S315000016D0C4E90433A370A3636363E261BA8A63F364
S315000016E0C302BA82BB7843F01003BB7094F918307A
S315000016F0002B08DB60495809012203F01F0302FA98
S3150000170003F341F8203094F91B30002B08DB5A49CB
S315000017105809012203F01F0302FA03F341F82030AF
S31500001720BB78626A554943F04003BB70937843F037
S31500001730200393706160C9E5514A0A927068CDF83A
S315000017400890FF228DF81F2000930AAA029B0DF134
S315000017501F01FFF783FB054600287FF40CAE834686
S31500001760EAE50825B2E509AA0292D4E5E378039AE8
S3150000177062F30103E370BCF1000F7FF432AE9CE626
S31500001780998A41F001019982998A41F00201998270
S315000017903169013A002945D0998A6FF30B21998264
S315000017A0306A02F00F02998A62F30F3199829A8A9F
S315000017B042F004029A829A8AC2F380015207FAD44E
S315000017C09A8A61F307129A8249E77A70FA7963F383
S315000017D08612FA71FA7963F3C302FA713A7863F3FF
S315000017E001023A70BB78022262F301039345BB7093
S315000017F07FF42FAFFB7943F01003FB7129E71A78CA
S3150000180042F040021A709A7942F010029A713AE751
S315000018100125B0E5FB796BF38203FB7119E7012023
S315000018200546A8E5306A92B2F0B10179B3F814C062
S31500001830114061F30B2C02F00F02A3F814C0B2E7BB
S31500001840103127E6E378616A03F00303012BF7D131
S3150000185005311FE60E338EE6E178636A01F0030177
S315000018600129F7D1033386E6998A02F00F0262F363
S315000018700B21998297E700BF00E100E055494353E9
S315000018806C4704004169002933D090F803C00CF07E
S315000018900303022B10B504691ED0427894F800E0C9
S315000018A0436A6AB11FFA8EFE1A79D209FCD0A3F8F0
S315000018B00EE00CF00303C91A2344C0E9043110BD3D
S315000018C01A79D209FCD083F803E00CF00303C91A95
S315000018D02344C0E9043110BD4278B4F800E0436AFD
S315000018E0002AE1D11A79D209E1D11A79D209F9D0BF
S315000018F0DDE770472DE9F04385B000286BD00F4631
S31500001900002968D0002A66D04D4B416899420446AA
S3150000191040F08380C37803F00303022B72D023695F
S31500001920002B5DD1A18F012905D1464BE08F1B6AA3
S3150000193001929847019A666AB37803F07B03B37005
S31500001940E368C4E90472DBB194F803809968186807
S31500001950D1F81890002308F00308CDE9023363613B
S3150000196002A908F1FF3522FA05F5C847029B9D42F8
S315000019704ED86378002B56D1013DC4F8148051D15E
S3150000198094F9190002F0FCFC94F91930002B2DDBB8
S3150000199003F01F015B099B0003F16043012203F57D
S315000019A061438A40C3F880216178F1B9B37843F086
S315000019B0A003B3702046FFF765FF94F91930002B9A
S315000019C01BDB21495809012203F01F0302FA03F326
S315000019D041F8203011E00125284605B0BDE8F08326
S315000019E00825284605B0BDE8F0831A60B37862780A
S315000019F043F0A003B370002ADCD00025284605B0CA
S31500001A00BDE8F08347EA0203DB0788D50325E3E751
S31500001A1001252046FFF70AFADEE70725284605B026
S31500001A20BDE8F0834744E268ABB2956810686D681C
S31500001A3039460022A84705460028A1D0E9E700BF9D
S31500001A4055494353E047040000E100E04378426A09
S31500001A503BB1107C537C43EA0023C3F308030B60BD
S31500001A607047C37803F00303022B05BF107C537C39
S31500001A70537943EA00230B60704700BF10B584B06A
S31500001A80026A436B0478039280220094ADF8042026
S31500001A902BB9C36902916846984704B010BD826BA2
S31500001AA09342FAD9C378846B03F00302022A03F047
S31500001AB00303026B234483631170036B10D001335D
S31500001AC00363826B436B9A42E7D100230121C2690B
S31500001AD0836343630293ADF8041068469047DCE7DE
S31500001AE05A1C090A02635970036B01330363E8E762
S31500001AF0F0B583B04378446A00220746019223B3C7
S31500001B00FE26BF25FB692671BBB1E38AD8060CD039
S31500001B10237C617C41EA0321C1F308013846019127
S31500001B20FFF7ACFFE38AD906F2D125712379DB07EB
S31500001B30E8D403B0F0BD237C637CE38ADA06FAD1ED
S31500001B4025712379DB07DDD4F3E701A9FFF77EFFD3
S31500001B50FB69002BEDD001993846FFF78FFF03B0E4
S31500001B60F0BD00BFF0B585B0EFF3058039F038FC65
S31500001B70EFF30383A3F1100040B2009302F000FCE0
S31500001B80EFF3038243490092A2F1100309685BB2A6
S31500001B9051F833301C682CB1E568676A002D54D0C3
S31500001BA0636933B1EFF3058005B0BDE8F04039F065
S31500001BB015BC94F91A0002F0E3FB94F91A20002AE6
S31500001BC059DB02F01F03510901229A40324801F104
S31500001BD0600340F82320BB7803F07F0343F004033F
S31500001BE0BB7094F91930002B15DB59092A480122DC
S31500001BF0203103F01F0302FA03F340F82130BFF34C
S31500001C004F8FBFF36F8F94F91A10002906DB01F08E
S31500001C101F039A404909204B43F82120E36900221B
S31500001C202261002BBED02578216A03914FF4807083
S31500001C30ADF804000095029268469847EFF30580D8
S31500001C4005B0BDE8F04039F0C9BB6678F6B1FB8A4D
S31500001C50C3F30423F61A002E05DD20460135FFF7EF
S31500001C6011FEAE42F9D13B796FF3C7133B7163693D
S31500001C70002B97D19DE7BB7803F07F0343F0040365
S31500001C80BB7094F91930002BAFDAC7E72046FFF78F
S31500001C90F9FD85E77449040000E100E010B584B061
S31500001CA0EFF3058039F09CFBEFF30383A3F11000FB
S31500001CB040B2009302F064FBEFF3038214490092F2
S31500001CC0A2F1100309685BB251F83330186878B195
S31500001CD08378012B13D1C2690478002181703AB14F
S31500001CE0006A0094CDE90210ADF8043068469047CA
S31500001CF0EFF3058004B0BDE8104039F06FBBFFF785
S31500001D00F7FEEFF3058004B0BDE8104039F066BB7E
S31500001D107449040030B585B0EFF3058039F060FBF7
S31500001D20EFF303821F490092A2F1100309685BB228
S31500001D3051F833301C681CB3626A2078937803F03C
S31500001D407B03937094F91A30002B0DDB5A09164D5C
S31500001D502032012103F01F0301FA03F345F8223074
S31500001D60BFF34F8FBFF36F8FE3694BB1226A0392C4
S31500001D700025022100900295ADF8041068469847A8
S31500001D80EFF30383A3F1100040B2009302F0F8FAD8
S31500001D902046FFF74BF8EFF3058005B0BDE830406D
S31500001DA039F01CBB7449040000E100E070B586B050
S31500001DB0EFF3058039F014FBEFF303822349029217
S31500001DC0A2F1100309685BB251F833301C68F4B114
S31500001DD0656A2678002301A92046CDE90133CDE9BD
S31500001DE003330593FFF732FE2B7999061ED5202380
S31500001DF0ADF80C302B7903F0C7032B71E36933B1CF
S31500001E00226A01990296CDE9041202A89847EFF3D7
S31500001E100383A3F1100040B2029302F0B1FAEFF38C
S31500001E20058006B0BDE8704039F0D8BA2B79DA06DD
S31500001E3007D52B7FDB0754BF10230823ADF80C30E2
S31500001E40D8E70423ADF80C30D4E700BF744904008A
S31500001E500B4B10B41C68B4EB102F03D803205DF8AD
S31500001E60044B704749B15B685DF8044B020A5201A6
S31500001E7004330020D3580B8070470120EFE700BFE2
S31500001E80D802FE1FD2B10E4B10B41C68B4EB102F53
S31500001E904FEA102C03D803205DF8044B70475B68AB
S31500001EA05DF8044B22EA01004FEA4C1C08330A4055
S31500001EB042EA00424CF80320002070470320704796
S31500001EC0D802FE1F12B3124B10B41C68B4EB102FCD
S31500001ED04FEA102C03D803205DF8044B70475C686A
S31500001EE04FEA4C1C02EA010354F80C00034361EA72
S31500001EF002019AB2114054F80C20120C120411433C
S31500001F0044F80C1000205DF8044B7047032070471E
S31500001F10D802FE1F0B4B10B41C68B4EB102F03D86D
S31500001F2003205DF8044B704751B15B685DF8044BC4
S31500001F30020A520104330020D3581B0C0B80704751
S31500001F400120EEE7D802FE1F10B40D4C2368B3EB58
S31500001F50102F03D803205DF8044B7047002AF9D0F0
S31500001F6063685DF8044B4FEA102C083322EA01003F
S31500001F7003EB4C130A4042EA00425A6000207047C5
S31500001F80D802FE1F20B14FF00223036000207047E5
S31500001F900120704738B50488002C4DD043680021D5
S31500001FA0043303EBC40040F202450C4640F2034CF6
S31500001FB040F2044E0FE0624530D153F8042C02F093
S31500001FC0B852B2F1807F14BF41F0020144F002041E
S31500001FD00833834211D01A88AA42ECD153F8042C54
S31500001FE002F0B852B2F1807F03F1080314BF41F04A
S31500001FF0010144F001048342EDD1C943CDB2012071
S3150000200002F096FA0D4B93F8BB2414432C4083F848
S31500002010BB440120BDE8384002F05ABA7245D7D118
S3150000202053F8042C02F0B852B2F1807F0CBF44F092
S31500002030040441F00401CBE7FF25E0E700E001409E
S31500002040012958D82E4B1A68B2EB102F70B44FEAFC
S31500002050102409D99A68C0B252F8245000F110062B
S315000020600122B2402A4202D1032070BC704700EB25
S315000020700410D3E9035454F8203000293DD043F02E
S315000020800401204E0E40EFF3108C012383F31088D9
S315000020901D4B1A8892B212B9EA704022EA701A8869
S315000020A0013292B21A808CF3108811F4803F54F8F2
S315000020B0202007D022F4803244F82020134A0A4018
S315000020C044F8202044F82060EFF31081012282F3C7
S315000020D010881A8892B21AB11A88013A92B21A80F6
S315000020E01B889BB213B98022EB70EA7081F31088CB
S315000020F0002070BC70470320704723F00401C0E73E
S31500002100D802FE1FD5FC011F3803FE1FD5FC001F99
S3150000211070B582B00446002501A80E468DF804501D
S3150000212001F076FF9DF80430DB0713D5202C0ED87E
S31500002130012E0CD8094BDB681A780CBF22EA04047E
S315000021401443284604F030041C7002B070BD03200E
S3150000215002B070BD062002B070BD00BFD802FE1FDF
S31500002160002861D043682DE9F0470646002B58D079
S31500002170FFF710FF3388002B50D02C4F2C4A4FF01E
S31500002180000C4FF0010E4FF0400A4FF080097168C5
S31500002190F8681FFA8CF401EBC40351F834509B889D
S315000021A03C69190ADBB203EB0113EFF310888EF3D7
S315000021B01088118889B211B9C17080F803A01188FE
S315000021C0013189B2118088F3108815F4803F54F8E4
S315000021D0231007D021F4803144F8231025F48031F0
S315000021E044F8231044F82350EFF310818EF310883F
S315000021F013889BB21BB11388013B9BB213801388D3
S315000022009BB213B9C37080F8039081F310883188AC
S315000022100CF1010C1FFA8CF39942B8D80020BDE8E6
S31500002220F0870120BDE8F08701207047D802FE1F25
S315000022303803FE1F00282ED070B5436886B00446CA
S31500002240002B2AD01649174DCE6809220023019289
S31500002250CDE90233CDE9043302A901A8B0470A2328
S315000022608DF80430029B6B60059BAB6002A9BDF83C
S315000022700C302B6001A8B047012302A98DF8053068
S3150000228001A8029B2B61B047029BEB602046FFF73B
S3150000229067FF06B070BD01207047012006B070BD13
S315000022A0C8D00400D802FE1F30B4124C2268B2EB2C
S315000022B0102F0CD9A268030AC0B252F8235000F1BD
S315000022C0100C012202FA0CFC1CEA050F02D10320B5
S315000022D030BC704751B1226900EB031330BC52F891
S315000022E02330C3F3400300200B707047104630BC08
S315000022F0704700BFD802FE1F30B4154C2368B3EBFD
S31500002300102F0CD9A368020AC0B253F8225000F16C
S31500002310100C012303FA0CFC1CEA050F02D1032062
S3150000232030BC704789B164685201043403FA00F086
S31500002330145982B200EA1440824214BF00200020E1
S3150000234030BC0CBF0B7008707047184630BC704725
S31500002350D802FE1F174A10B51468B4EB102F0DD91A
S31500002360030A9468C0B254F8234000F1100C4FF0F1
S31500002370010E0EFA0CFC1CEA040F01D1032010BD5D
S315000023807145FBD852680CD0083202EB43130EFAA3
S3150000239000F0596841EA0041090C0904596000201F
S315000023A010BD083202EB431381405868014389B2DD
S315000023B0F4E700BFD802FE1F012921D830B4124C21
S315000023C02368B3EB102F4FEA10220BD9A368C0B2D3
S315000023D053F8225000F1100C012303FA0CFC1CEAFE
S315000023E0050F02D1032030BC704703FA00F049B153
S315000023F083B2616852010831002030BC53507047E7
S31500002400032070470304F4E7D802FE1F2DE9F041CC
S315000024102E4D2B68B3EB102F84B00CD9AB68060A8F
S31500002420C7B253F8263007F110024FF0010808FA38
S3150000243002F21A4203D1032004B0BDE8F08102ABD8
S31500002440ADF80C0068460C4602910193ADF8008089
S31500002450FFF7A0FDD5E9035107EB0613EFF310864E
S3150000246088F310881A48028892B212B9EA7040229C
S31500002470EA700288013292B2028086F31088E6037F
S3150000248051F8232007D522F4803241F8232024F482
S31500002490803241F8232041F82340EFF310820123D4
S315000024A083F3108803889BB21BB10388013B9BB260
S315000024B0038003889BB213B98021EB70E97082F325
S315000024C01088002004B0BDE8F08100BFD802FE1FCE
S315000024D03803FE1F034B04301B6823F8201000202E
S315000024E0704700BF3C03FE1F034B1A68031D002004
S315000024F022F82300704700BF3C03FE1F034B1A68F7
S31500002500137843F080030020137070473C03FE1FCE
S31500002510034B1A6813786FF3C713002013707047C4
S315000025203C03FE1F20B14FF00223036000207047DA
S315000025300120704770B586B0002830D01A4A0023B3
S315000025400B21CDE90113CDE90333D2680593044687
S3150000255002A901A89047054610B1284606B070BDED
S31500002560124E029B336001A801F07EFE62685AB1EA
S31500002570A368306803EB820C598813F8042B0432E5
S315000025809C4520F82210F7D12378002BE5D032683D
S315000025901378284643F08003137006B070BD0125FA
S315000025A0284606B070BD00BFC8D004003C03FE1F1D
S315000025B060B1012808D1094B1B6800204021412247
S315000025C0187119711A71704701207047034B1B6807
S315000025D040214122987099709A7070473C03FE1F03
S315000025E0062070470620704790B10A4B02689A424F
S315000025F00CD190F90630084AC033126852F82310FD
S315000026006FF3186142F823100020704707207047C7
S3150000261001207047004354444803FE1F20B14FF089
S3150000262002230360002070470120704730B31A4B25
S3150000263002689A4224D109B3184B1B68DB89002231
S315000026408A7113F4004F9AB290F9063004D052B250
S31500002650934204BF01228A71114A52F82330D87876
S3150000266000F0C00080280DD0DB8940289BB28B800B
S315000026700FD048B94FF480330B6070470120704784
S31500002680072070479B898B804FF480730B60002076
S315000026907047DBB28B80F7E7004354444403FE1FC8
S315000026A00000FE1F08B3124A01689142034618D182
S315000026B090F9062012F1210F15D00E4902F1C00043
S315000026C0096810B451F820406FF3186441F82040AF
S315000026D009485DF8044B002140F8221008461960AD
S315000026E07047072070470B2070470120704700BFD6
S315000026F0004354444803FE1F0000FE1F50B31F4B07
S3150000270002689A4228D190F9063013F1210F2ED093
S315000027101B4A52F823209168E1B15168D1B1D178B2
S3150000272001F03001102919D0202910D0154AC033E4
S31500002730126852F823106FF3104142F8231052F832
S31500002740231041F0807142F82310002070479168F1
S3150000275089070ED00120704707207047906810F057
S315000027600100F8D1506810F00100DFD070470B204F
S31500002770704752689207EDD1D8E700BF0043544432
S315000027800000FE1F4803FE1FF0B583B001910092C2
S3150000279000283BD0234990F9062051F82240E178E1
S315000027A011F0C00127D1204D0668AE4231D11F4D30
S315000027B0C0322E681E4D56F822702D686FF31867CA
S315000027C046F822702A786FF304122A70019A0AB129
S315000027D0019A6260009A0AB1009AA26080291ED00E
S315000027E001B9E381FFF78AFF2B7843F010032B70C2
S315000027F090B903B0F0BD7BB10B4D0668AE4208D16F
S315000028008029D4D1E589ADB2002DD0D1012003B005
S31500002810F0BD072003B0F0BD132003B0F0BDA381C7
S31500002820E0E700BF0000FE1F004354444803FE1FBC
S315000028304403FE1F2DE9F04182B001919DF820E08E
S31500002840BDF82460009200283FD090F906C0244DC0
S3150000285055F82C20D17801F0C001802939D1002EFD
S3150000286033D0002B31D01F4C0168A14235D11E490F
S315000028701E4C0F6824680CF1C00157F821806FF3D5
S31500002880186847F8218021786FF3041121700199A7
S3150000289009B101995160009909B100999160968139
S315000028A0D381D3786EF30513D37055F82C309A7B09
S315000028B0DA73FFF723FF2378002843F0100318BFCD
S315000028C01320237002B0BDE8F081012002B0BDE8FC
S315000028D0F081062002B0BDE8F0810720F6E700BFD0
S315000028E00000FE1F004354444803FE1F4403FE1F1E
S315000028F000287CD02DE9F0470E4686B0002955D039
S315000029000B68002B52D0DA7812F0C00F054648D17A
S31500002910504B2A689A424DD04F4F3B78002B4DD0F2
S315000029204E4B1C68B6F804E0002302E00133702B1E
S315000029305FD003F1C00C59B254F82C20C2F3080240
S315000029409645F3D154F82C20454CC2F30802AA80D0
S3150000295054F8232072BBD6F800C06246D07810F037
S31500002960C00F1CBF907BD073907810F0C00002F1AE
S315000029701002F3D13B4ADFF8DCE017683A7860F3DF
S3150000298004123A7044F823C0A971B079C5F800E082
S31500002990002835D13B7843F010033B7006B0BDE804
S315000029A0F087DB899BB2B3F5807FB1D9012006B0F1
S315000029B0BDE8F087082006B0BDE8F087082201923E
S315000029C0294A0293CDE90333D468059302A901A8E5
S315000029D0A0470028EBD1DFF88C90029BC9F80030A5
S315000029E001A801F0F9FC8046A8B10A20DFE7012022
S315000029F07047D4F87C32C3F308030B20AB80D6E7CC
S31500002A002846FFF77BFE3B78002843F010033B7017
S31500002A1018BF1320CBE7DFF848A001A801F024FC7B
S31500002A2041464FF4E07250463EF0EAFED9F80030D7
S31500002A30C3F804A01A7B42F001021A7306238DF82C
S31500002A40043001A802A9A047044B029C1C60012384
S31500002A503B7067E7004354444003FE1F4803FE1FD4
S31500002A600000FE1F4403FE1FC8D004000620704766
S31500002A70062070470620704720B14FF002230360FE
S31500002A80002070470120704732490B6893F82820D0
S31500002A9002F03003102B0CD0202B02D000238B61C8
S31500002AA0704790F82B302C4A9B0932F813305BB9EB
S31500002AB07047038D10B403F00303284C34F8133029
S31500002AC003BB5DF8044B704707EE903AB8EE677AA1
S31500002AD0D1ED047A90F82B30F8EE676A03F01F0305
S31500002AE0C6EE877A07EE103AB8EE477AF7EE006A36
S31500002AF037EE267A67EE877AFCEEE77A17EE903A9B
S31500002B008B617047520622D5028D12F0100F0CBF52
S31500002B100322002201EB820207EE903AD2ED016A0F
S31500002B20038D5DF8044BF8EE677AF8EE666AC3F338
S31500002B30052386EEA77A013307EE903AFAEEEF7A8E
S31500002B4067EE277AFCEEE77AC1ED067A7047032234
S31500002B50E0E700BFEC02FE1FD8480400E848040086
S31500002B6051B3062810B429D005280AD004282DD040
S31500002B70D8B1012842D0022838D003282ED003200D
S31500002B8010E0224C0023E0690B60026AC2F3027275
S31500002B9090F8263003F0070304EB830300205B68FC
S31500002BA0D3400B605DF8044B7047184C0860E06931
S31500002BB0026AC2F30232EBE701207047134C00238E
S31500002BC0E0690B60026AC2F30262E1E70F4C002380
S31500002BD0E0690B60026AC2F30242D9E70B4C00239C
S31500002BE0E0690B60026A02F00702D1E7074C002396
S31500002BF0E0690B60026AC2F30212C9E7034C0023C4
S31500002C00E0690B60026AC2F30222C1E7EC02FE1F12
S31500002C1038B5084BDD690446002001F089FC95F8BB
S31500002C20303064F30003002085F8303001F050FCAA
S31500002C30002038BDEC02FE1F084B10B5DC690020F1
S31500002C4001F076FC94F8523043F00103002084F83A
S31500002C50523001F03DFC002010BD00BFEC02FE1F0B
S31500002C60084B10B5DC69002001F062FC94F8523084
S31500002C706FF30003002084F8523001F029FC002095
S31500002C8010BD00BFEC02FE1F084B10B5DC6900202A
S31500002C9001F04EFC94F83E3043F08003002084F8A7
S31500002CA03E3001F015FC002010BD00BFEC02FE1FF7
S31500002CB0084B10B5DC69002001F03AFC94F83E3070
S31500002CC06FF3C713002084F83E3001F001FC0020AA
S31500002CD010BD00BFEC02FE1F084B10B5DC690020DA
S31500002CE001F026FC94F8533043F00103002084F8E9
S31500002CF0533001F0EDFB002010BD00BFEC02FE1FBB
S31500002D00084B10B5DC69002001F012FC94F8533032
S31500002D106FF30003002084F8533001F0D9FB002044
S31500002D2010BD00BFEC02FE1F38B5084BDD69044636
S31500002D30002001F0FDFB95F8243064F30613002013
S31500002D4085F8243001F0C4FB002038BDEC02FE1FDC
S31500002D5030B583B001F0A6F84FF0E02301901D696D
S31500002D60186910F0020028D0DDED017A164CF8EE55
S31500002D70677AF7EE006A86EEA77A0020186194F863
S31500002D802320D1B2DFED117ADFED116A27EE277A23
S31500002D90C6EE877AFCEEE77A17EE902A013AB2F190
S31500002DA0807F0CD25A61F02284F8232001F0F001D2
S31500002DB0072298611A6184F8231003B030BD1220EF
S31500002DC01D6103B030BD00BF00ED00E00024744972
S31500002DD000401C4608B1FFF7BBBF0320704700BF89
S31500002DE0052827D0144B042870B5DD6904460E4625
S31500002DF006D195F88034DB0702D54FF4C87070BD54
S31500002E00002001F095FB95F83E306FF3C71385F867
S31500002E103E3095F83E3066F3061385F83E3095F859
S31500002E203E3064F30203002085F83E3001F050FB8B
S31500002E30002070BD03207047EC02FE1F38B5002449
S31500002E4002F0070261F30E349DF810C09DF81410CD
S31500002E5062F30A2463F306140E4B6CF302041B6838
S31500002E6061F312449DF8181093F82A3061F31E742A
S31500002E709DF81C10054661F31A645B0748BF62F3B0
S31500002E801244002001F054FB2C620020BDE83840BB
S31500002E9001F01EBBEC02FE1F10B5174BDC6994F85F
S31500002EA04120D00706D494F84130DB074FF00000EC
S31500002EB010D410BD1A6894F8263092F828205106CE
S31500002EC003F0070313D4052B01D0032BEBD140F2FB
S31500002ED0971010BD01F02CFB94F841306FF30003FE
S31500002EE0002084F8413001F0F3FA002010BD228D55
S31500002EF0D206EAD4E7E700BFEC02FE1F06207047C1
S31500002F00062070470620704706207047024630B3F9
S31500002F1029B3144BDB6993F826C0CCF3020C82F874
S31500002F2000C01A6AC2F302320A701A6AC2F3022297
S31500002F304A701A6AC2F302128A701A6AC2F302024D
S31500002F40CA701A6AC2F302420A711A6AC2F302729C
S31500002F504A711B6AC3F3026300208B71704701201C
S31500002F60704700BFEC02FE1F2DE9F84300295AD036
S31500002F70002874D03D4DEB6993F8AA4014F0010483
S31500002F806DD193F8A020196A1C6A1F6A2E68C7F3D0
S31500002F90021C1F6A07F0070E1F6AD3F820901B6AEF
S31500002FA0C3F30268B36802F00302C1F30231C4F34B
S31500002FB00224C7F30247C9F3027953B3032A28D17F
S31500002FC033698B422DD8A3422BD8634529D8734544
S31500002FD027D84B4525D8BB4223D8434521D801469F
S31500002FE0012001F02BF8EC69002001F0A1FA94F819
S31500002FF0403043F0800384F8403094F8403043F08A
S315000030000103002084F8403001F062FA0020BDE898
S31500003010F883F368002BE2D0022AE0D173698B4271
S31500003020D1D90520F3E7114BDD6995F84130DB076F
S3150000303018D408460C4601F07BFA95F8403064F344
S31500003040000385F8403095F8403064F3C7132046F6
S3150000305085F8403001F03CFA2046BDE8F8830120AF
S31500003060BDE8F8834FF4CB70BDE8F883EC02FE1F91
S3150000307070B5434D88B0284600F0D2FF414A002380
S315000030800321CDE90433CDE906330191D26804A9C1
S3150000309001A89047049CEC614FF6FF73029394F8E5
S315000030A03630DE0754D5002001F042FA94F8A530F8
S315000030B0062262F3020384F8A530002001F008FA24
S315000030C02B68EC69D3E906232B612F4BAB600020FC
S315000030D04FF400434FF6FF766A60A861EB606B61C0
S315000030E0029601F025FA94F8803443F0010384F83F
S315000030F08034002001F0ECF9EC69039694F88034F2
S31500003100D80714D5039BFBB12B68226A93F822508B
S3150000311094F82630002001F00BFA94F88034DB078F
S3150000312027D4002001F0D4F9002008B070BD039B1D
S31500003130002BE7D0039B013B039394F88034DA0716
S31500003140F5D5039B002BDFD14FF4CD7008B070BDD1
S3150000315094F83C30D90708D4029B33B1029B013B5B
S31500003160029394F83C30D907F6D5029B002B9AD1EE
S31500003170EAE794F8813423EA050384F88134D0E73A
S31500003180EC02FE1FC8D0040000127A0005292ED8D2
S31500003190DFE801F00A11181F260390F82A0000F054
S315000031A0010080F00100704790F8360000F0010041
S315000031B080F00100704790F8380000F0010080F0C0
S315000031C00100704790F8900400F0010080F00100C3
S315000031D0704790F8320000F0010080F0010070475F
S315000031E090F8800400F0010080F001007047002094
S315000031F0704700BF052867D870B5554D0446E86985
S3150000320090F8263003F007039C4282B020D0052BAD
S3150000321011D090F82A30DB070DD5012C1CD190F87F
S315000032204030DB0978D12146FFF7B0FF002866D190
S31500003230002002B070BD2B6893F828305E0669D571
S31500003240038D13F0100F0CBF032300239C42E4D11F
S3150000325040F2911002B070BD2146FFF797FF00289B
S31500003260E6D0032CEE693CD0052C07D196F83C300D
S315000032709B0654D440F2931002B070BD34BB96F84E
S315000032803C30D907F6D5204601F052F996F836308B
S3150000329043F0010386F83630002001F019F94FF6A5
S315000032A0FF73019304E0019B43B1019B013B019332
S315000032B0E8692146FFF76AFF0028F4D1019B002B3D
S315000032C0B6D14FF4CD70B4E703207047002001F06B
S315000032D02FF9631E042BDFD8DFE803F015320A2B23
S315000032E0240096F83C301A07C4D5002001F020F9D6
S315000032F096F8323043F0010386F83230CCE70020EE
S31500003300EE6901F015F996F8383043F0010386F8B6
S315000033103830C1E7032399E740F2951089E700208A
S3150000332001F006F996F82A3043F0010386F82A30B0
S31500003330B2E796F8803443F0010386F88034ABE7B1
S3150000334096F8903443F0010386F89034A4E700BF62
S31500003350EC02FE1F05281DD808B5431E012B0146A9
S3150000336008D9042806D068B1032815D005281FD02F
S31500003370002008BD194BD869FFF708FF38B140F2A5
S31500003380911008BD154AD069FFF700FFF0B94FF458
S31500003390C87008BD03207047104AD069FFF7F6FED3
S315000033A00028F4D0D36993F83C301B070BD512E004
S315000033B00A4AD069FFF7EAFE0028E8D0D36993F8F5
S315000033C03C30990607D440F2931008BDD36993F8B0
S315000033D03C30DA07F7D54FF4C97008BDEC02FE1F82
S315000033E030B583B04FF6FF730446012001930D46B6
S315000033F001F09EF800230DF103008DF8033000F074
S31500003400CBFC94F8AA30D80605D494F8A030D90697
S31500003410C3F300120AD5019B013B0193019B002BCC
S31500003420EFD1012001F054F803B030BD94F8AA3072
S315000034304FF6FF7162F3000384F8AA30019102E0AF
S31500003440019B013B019394F8AA30DA0603D494F861
S31500003450A030DB0602D5019B002BF1D194F8A030F9
S31500003460042D0CBF43F0030365F3010384F8A03079
S315000034704FF6FF73019302E0019B013B019394F821
S31500003480AA30D80603D494F8A030D90602D5019BF9
S31500003490002BF1D194F8AA30042D0CBF43F00103A0
S315000034A06FF3000384F8AA304FF6FF73019302E02E
S315000034B0019B013B019394F8AA30DA0603D494F8F1
S315000034C0A030DB0602D5019B002BF1D19DF803004D
S315000034D000F076FC012000F0FBFF03B030BD00BF1A
S315000034E00428124B0ED002280CD01A6892688A4221
S315000034F007D3D86990F82A30DB0702D50321FFF7F6
S315000035006FBF7047D86990F82A20D207EDD590F89A
S315000035103220D207E9D590F83620D207E5D590F8C3
S315000035203820D207E1D50421FFF75ABFEC02FE1F6F
S315000035302DE9F041052888B02BD80C46002900F06B
S31500003540AE800B788A79934223D34978994220D367
S31500003550E17899421DD8637993421AD32179914231
S3150000356017D30428074619D0674EF06990F826301D
S3150000357003F007039F4228D0002F00F0BC80032FE2
S3150000358040F0AE8090F83C301A071ED440F29315F6
S3150000359000E00325284608B0BDE8F081134340F05B
S315000035A0A880594EF06990F84030DB0940F0A180C0
S315000035B090F8263003F00703042B06D03946FFF7B0
S315000035C0E5FD002800F09D80F069036A036A036A3E
S315000035D0036A036A036A036A0021C3F30268FFF7FA
S315000035E0FFFE00238DF810308DF81C3006EB8703A4
S315000035F0A2795B68D3400593F3691A6A93F826307B
S3150000360003F0070306EB8303C2F302625B6804A8B8
S31500003610D340069300F056FC05460028BAD1A3799C
S31500003620984541D203936379029323790193E37812
S315000036300093A37862782178F069FFF7FFFBF469BD
S31500003640284600F075FF94F8263067F302032846F3
S3150000365084F8263000F03CFFF3691A6A93F82630A6
S3150000366003F0070306EB8306C2F3026273680121C7
S31500003670D34004A88DF81010069300F023FC0546ED
S31500003680002887D100F00EFC204B01461860002868
S3150000369037D03846FFF724FFFFF75AFB7AE70125B4
S315000036A0284608B0BDE8F081D6F81C8000F040FF3F
S315000036B098F8263067F30203284688F8263000F08B
S315000036C007FFA37903936379029323790193E37840
S315000036D00093A37862782178F069FFF7AFFBBBE728
S315000036E0052F7FF46BAF90F83C309B063FF56DAF2E
S315000036F04CE705254EE790F83C30D9073FF565AF16
S3150000370044E74FF4C87545E7EC02FE1F9803FE1F19
S315000037102DE9F0432DED028B042883B0044668D0D2
S31500003720012800F0498120BBB74DEE6996F83C3080
S31500003730DB0700F1538196F8AA30DF0700F15581C7
S3150000374096F8A030002000F0F3FE96F836306FF3BE
S31500003750000386F83630002000F0BAFE4FF6FF73FD
S31500003760EA690193052C1BD8DFE804F0343E392FB3
S315000037702016032800F0CE8005285BD0A24D00203D
S31500003780EE6900F0D5FEA31E032BE4D8DFE813F0A4
S315000037900D0106014400BB0092F82A30DB0709D56B
S315000037A0019B3BB1019B013B0193DBE792F880341F
S315000037B0D907F5D4019B002B14BF00204FF4CD7020
S315000037C003B0BDEC028BBDE8F08392F83230DD0722
S315000037D0E6D4EFE792F83630DB07E1D4EAE792F871
S315000037E09034DE07DCD4E5E792F83830DF07D7D42B
S315000037F0E0E7854D2B68EE6993F82270002000F013
S3150000380097FE96F88034D9070DD4002000F060FEAC
S315000038100020EE6900F08CFE96F880346FF300030A
S3150000382086F8803497E796F8813423EA070386F80A
S315000038308134EAE70E46002900F0EE80724D727878
S315000038402B6893F824109142C0F0DB8093F8262071
S3150000385096ED017A07EE902AF8EE677AF4EEC77ACB
S31500003860F1EE10FA00F1CD8093F8253007EE903A8C
S31500003870F8EE677AB4EEE77AF1EE10FA00F1C1805D
S315000038803178032902D0002940F0BB80E869FFF7B0
S315000038907DFC002800F0C280EF6997F83C3099065D
S315000038A000F19C8097F8AA30DA0700F1BA8097F801
S315000038B0A03096F80080002000F03AFE3B8DB8F16B
S315000038C0030F0CBF6FF3041343F010033B85002076
S315000038D000F0FEFD2B68EF6993F8283096F801801A
S315000038E003F03003102B00F0D080202B00F09F80D7
S315000038F03846FFF7C9F8E8690021FFF771FD002097
S31500003900EE6900F015FE96F82A306FF3000386F88C
S315000039102A3020E73C4DEF6997F83C301E075DD40E
S3150000392097F8AA30D80771D497F8A0302B680020F2
S3150000393093F8276093F8208093F8219000F0F8FD23
S3150000394097F8133406FA09F25BB25A4002EA080203
S315000039505340DBB287F81334002000F0B9FDEE695E
S31500003960002000F0E5FD96F813346FF3861386F811
S315000039701334002000F0ACFDEE69002000F0D8FD05
S3150000398096F8A230052262F3030386F8A2300020DF
S3150000399000F09EFD0020EE6900F0CAFD96F8323078
S315000039A06FF3000386F83230D5E696F890346FF35D
S315000039B0000386F89034CEE6134DEE6996F8AA30E9
S315000039C0DA0718D496F8A030002000F0B1FD96F87A
S315000039D038306FF3000386F83830BCE640F29310B7
S315000039E003B0BDEC028BBDE8F08330460321FFF740
S315000039F0F7FCEE69A6E630460321FFF7F1FCEE6917
S31500003A00E2E70320DCE600BFEC02FE1F3846214653
S31500003A10FFF7E6FCEF6989E70120D1E64FF4CA70AB
S31500003A20CEE638460321FFF7DBFCEF6941E72F4B73
S31500003A30002033F8188000F07BFD97F82B3068F3F0
S31500003A40871387F82B30002000F042FD2B68EF69C2
S31500003A5093F8283096ED018A03F03003102B2ED010
S31500003A60202B10D1002000F063FDFCEEC87A97F8F9
S31500003A702B2017EE903A013B63F3040287F82B20C4
S31500003A80002000F025FDEF6932E7194B002033F8DE
S31500003A90189000F04DFD3B8D69F301033B85002036
S31500003AA000F016FD2B6893F8283003F03003202B26
S31500003AB0BDD0102BEF697FF41BAF96ED018A002075
S31500003AC000F036FD78EE087A3A8DFCEEE77A0020B3
S31500003AD017EE903A013B63F30D223A8500F0F8FCAD
S31500003AE02B6893F8283003F03003B9E7D048040078
S31500003AF0E048040005280AD8194A08B5431ED269C9
S31500003B00042B27D8DFE803F00D21171C050003203E
S31500003B10704792F82A30DB0707D5BDE80840FFF763
S31500003B20F7BD92F83830DB07F7D41046FEF7ACFF46
S31500003B3040F2911008BD92F83230DB07EDD4F4E77D
S31500003B4092F88034DB07E8D4EFE792F89034DB078D
S31500003B50E3D4EAE792F83630DB07DED4E5E700BFC8
S31500003B60EC02FE1F2DE9F04383B0012801910C46BB
S31500003B701CD0022803D0002003B0BDE8F08305293D
S31500003B80164619D0DFF8A080D8F81C002146FFF7AA
S31500003B90FDFA00283DD1311D2046FFF7B9FD00286A
S31500003BA0E9D040F291139842E5D0E5E7084603B024
S31500003BB0BDE8F043FFF71EBB1279052A27D8DFF8C8
S31500003BC068801146D8F81C00FFF7E0FA30BB314692
S31500003BD01046FFF79DFDA8B996F804904FF6FE75BE
S31500003BE040F2931701E0013DC6D04846FFF7B2FB0D
S31500003BF0B842F8D00028C7D06FF4C873C318012B99
S31500003C00C2D9B9E740F291139842E5D0B4E7032050
S31500003C10B2E7D8F81C00FEF737FFACE7D8F81C006F
S31500003C20FEF732FFD8E700BFEC02FE1F2DE9F04792
S31500003C3082B0002854D0DFF85C810678D8F81C30B2
S31500003C4090F815A093F826701A6A1A6A1A6A1A6A00
S31500003C501A6A1A6A1B6AC37C8DF80230037D8DF8D6
S31500003C600130C37D8DF803308146837D007E8DF85B
S31500003C7000A0052E07F007078DF804308DF8050023
S31500003C8029D806F108036B4413F8083C012B22D00F
S31500003C90022809D199F80430052B1CD808336B4447
S31500003CA013F8083C012B16D04A460521FFF75AFFA8
S31500003CB00446002849D140F29115E1B24A465046E1
S31500003CC00134FFF74FFF08B1A84249D1052C0CD0AB
S31500003CD01DF804A0F1E70324204602B0BDE8F087F2
S31500003CE00124204602B0BDE8F0874FF6FE7540F28B
S31500003CF0931A01E0013DEFD03046FFF72BFB50450C
S31500003D000446F7D020B16FF4C8754319012BE3D8E8
S31500003D10042E27D0002509F10C013046FFF708FCD8
S31500003D2004460028D8D1BE4206D007F108036B44EA
S31500003D3013F8083C012B0ED0002DCDD000F0B2F8C0
S31500003D4001463046FFF7CCFBC6E740F29113984296
S31500003D50C2D10024AFE73846FFF74CFA0028EBD073
S31500003D600446B9E7D8F81C3093F82A20D0070ED5B8
S31500003D7093F83220D1070AD593F83620D20706D514
S31500003D8093F8385005F0010585F00105C3E70125D4
S31500003D90C1E700BFEC02FE1F034668B1074AB2F84E
S31500003DA00011C1F30001197092F800316FF300039E
S31500003DB0002082F8003170470120704700C00140A2
S31500003DC0104991F8043143F0010381F80431B1F848
S31500003DD004318446D8070AD54FF0FF3300E07BB1A3
S31500003DE0B1F80421D20703F1FF33F8D443B1054AF1
S31500003DF092F800316CF30003002082F8003170471E
S31500003E001420704700C0014070B5244D82B02B6865
S31500003E1098470120FFF7D4FFAE6800210320B04782
S31500003E201F4AEC69019240F20313ADF800300320FB
S31500003E30A047B0F5C97FFAD169460520B04728B139
S31500003E4040F29113984201D000BEEC690520A047CC
S31500003E50B0F5C97FFAD10123022200218DF80610A0
S31500003E602C698DF800308DF801208DF802208DF830
S31500003E7003308DF805208DF8043069460520A047EB
S31500003E8000B100BE2B6E04209847AB6A012098470C
S31500003E90EB6A9847AB6D984702B070BD6448040062
S31500003EA00000A04100B5064B83B000229B69019239
S31500003EB001A906209847019803B05DF804FB00BFEE
S31500003EC0644804000378D3B1012B01D00020704769
S31500003ED08368474A017B934254D9464A934266D93E
S31500003EE0454A92F81C3103F007039942EED092F846
S31500003EF01C3161F3020382F81C31002070474268CE
S31500003F003B498A4235D93D4B4FF0F10C10B483F84A
S31500003F1004C0197A374C41F004011972197A41F03C
S31500003F2008011972197A41F001011972197A41F0E2
S31500003F3002011972A2424FF0F001197141D983F8BA
S31500003F4004C01A7A42F010021A721971022303731E
S31500003F50294991F81C2102F007029A4205D291F8EC
S31500003F601C2163F3020281F81C2100205DF8044B3A
S31500003F70704723498A422AD81F4A037392F81C3194
S31500003F80002070471D4BF1221A711A7A6FF38202D4
S31500003F901A721A7A6FF3C3021A721A7A6FF3000250
S31500003FA01A721A7AF0206FF341021A721871134BC3
S31500003FB0F1221A711A7AF0206FF304121A7218712C
S31500003FC08EE7104B9A42C1D801230373C0E7012341
S31500003FD00949037391F81C2102F007029A42BFF4C3
S31500003FE075AF91F81C2163F3020281F81C216DE77D
S31500003FF0000E270700C2EB0B00C001400020004066
S3150000400000B4C4040068890900230370704700BF28
S31500004010037823F0030343F003030370704700BFE4
S31500004020014B0360704700BFF0480400024830228D
S3150000403000213DF0E5BB00BF4C03FE1F024B43F8D9
S3150000404020100020704700BF4C03FE1F08B56F4BC1
S31500004050B3F84031D80700F1CB806C4BB3F8403150
S31500004060990700F1B880694BB3F840315A0700F15F
S31500004070A580664BB3F840311B0700F19280634B75
S31500004080B3F84031D8067FD4604BB3F840315906B7
S31500004090C3F380106CD45D4BB3F840311A065AD482
S315000040A05A4BB3F84031DB0548D4584BB3F840318E
S315000040B0980536D4554BB3F84031590524D4534BA3
S315000040C0B3F840311A0512D4504BB3F84031DB0433
S315000040D000D408BD4E4BDB6A0BB10B2098474B4A08
S315000040E0B2F8303143F48053A2F8303108BD484B62
S315000040F09B6A0BB10A209847444AB2F8303143F420
S315000041000063A2F83031DFE7414B5B6A0BB109204F
S3150000411098473E4AB2F8303143F48063A2F8303112
S31500004120CDE73B4B1B6A0BB108209847374AB2F8DC
S31500004130303143F40073A2F83031BBE7344BDB690E
S315000041400BB107209847314AB2F8303143F48073F7
S31500004150A2F83031A9E72E4B1B680BB10020984717
S315000041602A4AB2F8303143F08003A2F8303197E79B
S31500004170274B5B6803B19847244AB2F8303143F0C5
S315000041804003A2F8303186E7214B9B690BB106202C
S3150000419098471E4AB2F8303143F01003A2F8303186
S315000041A072E71B4B5B690BB105209847174AB2F8BB
S315000041B0303143F00803A2F8303160E7144B1B6935
S315000041C00BB104209847114AB2F8303143F004038A
S315000041D0A2F830314DE70E4B9B680BB10220984791
S315000041E00A4AB2F8303143F00203A2F830313AE716
S315000041F0074BDB680BB103209847044AB2F830310D
S3150000420043F00103A2F8303127E700BF0060004009
S315000042104C03FE1F0378452B20D8114AD35CFF2B95
S3150000422005D090F801C0428813F0200001D0032089
S31500004230704710B503F01F010A4C9B0954F8234040
S31500004240EFF3108E012383F3108862448A1A934099
S315000042502268134323608EF3108810BD0120704737
S315000042601C490400644904000278452A30D81E4BD4
S315000042709B5CFF2B35D010B5B0F802C090F801E07A
S31500004280980603F01F0115D4F444A1EB0C0101209C
S3150000429088409B09154A52F82320EFF31081012329
S315000042A083F31088136823EA0003136081F31088F0
S315000042B0002010BD01242B2A04FA01F00AD0332A6B
S315000042C0E7D1BEF1010F04BF01310EFA01F0E0E7BC
S315000042D001207047BCF1070FDBD9013104FA01F068
S315000042E0D7E70320704700BF1C4904006449040057
S315000042F0034640B1064A92E803004FF0000C83E8FB
S315000043000300604670474FF0010C6046704700BFDF
S315000043108C490400A0F101000028FBD1704700BFC2
S3150000432010B501FB00F4FFF7BDFD4FF47A72A4FB54
S3150000433002CE4FF0FF331149B1FBF0F063454FF069
S31500004340000171EB0E0E07D3BCFBF0F0800878B1CC
S31500004350BDE81040FFF7DEBF8000B4FBF0F4A4FB1D
S315000043600242A34271EB020203D320460028EFD19A
S3150000437010BDBDE810401846FFF7CCBF00CA9A3BF7
S31500004380002808DB800000F1804000F5C640036885
S315000043906FF31043036070470B4A0C4B10B49B1A23
S315000043A00B4CDB08236063B10A4800219388C3F3F2
S315000043B0090340F8043B236801318B4202F10802ED
S315000043C0F4D85DF8044B7047000500002005000096
S315000043D07C03FE1F00630040134B10B41C68FCB145
S315000043E0124B00681A680023043A02E00133A34224
S315000043F016D052F8041F8842F8D10D4A12680121DE
S31500004400134402E0C3E8401F58B1D3E84F2FD2B29D
S31500004410002AF7D0BFF32F8F08205DF8044B7047B2
S3150000442003205DF8044B70478003FE1F8403FE1FC4
S315000044308803FE1F0B4B10B41C6884B10A4B00683E
S315000044401A680023043A02E00133A34207D052F867
S31500004450041F8842F8D1054A12680021D1545DF83C
S31500004460044B70478003FE1F8403FE1F8803FE1F54
S31500004470F0B5114D114C1249124A134B134E0E60F2
S31500004480641BA40815601C6084B105EB840EAC4661
S3150000449000275CF8040B2A46002352F8041B8842C6
S315000044A005D001339C42F8D1F445F2D1F0BDF44574
S315000044B0F754EED1FAE700BF20050000D006000051
S315000044C08803FE1F8403FE1F8003FE1F6802FE1F73
S315000044D0EFF31081012383F31088124B33F8102079
S315000044E092B22AB133F81020013A92B223F8102082
S315000044F033F810309BB293B90B4A10B4B2F8FE33BE
S315000045000A4C9BB234F8100043F4254323EA000317
S31500004510A2F8FE3381F310885DF8044B704781F3EF
S31500004520108870478C03FE1F00E0014078490400A4
S3150000453030B4EFF31081012383F310880E4A32F86A
S3150000454010309BB26BB90D4C0D4DB4F8FE3335F8F7
S3150000455010C09BB243EA0C0343F425439BB2A4F874
S31500004560FE3332F8103001339BB222F8103081F35B
S31500004570108830BC704700BF8C03FE1F00E001406E
S3150000458078490400024B00221A805A809A807047AC
S315000045908C03FE1F0B4A08B50346106840B103336F
S315000045A0094923F0030303448B4204D8136008BD72
S315000045B006481060F3E73DF073F80C2303604FF0F4
S315000045C0FF3008BD9403FE1FF835FE1FF825FE1FB9
S315000045D000BE704708B500F005F835F01BFEFEE793
S315000045E0704700BF414AF8B5D2F8883043F47003EB
S315000045F0C2F8883000200446FFF7F2FFFFF716FDE9
S315000046003B4B1B689847FFF7BDFFFFF7FDFB394A99
S31500004610394B148039481B689847394A3948121A69
S3150000462002D021463DF0ECF8374A3848121A02D03B
S3150000463037493DF0BDF8374B37493848384A0024EA
S315000046404FF425459C801D809860DA60B1F82021E2
S3150000465092B2012542F48052A1F820219D80FFF7F5
S3150000466021FC304B024628461A602F4DFFF7B8FF53
S315000046702E4B5B1BA3424FEAA30605DD55F8043B10
S3150000468001349847A642F9DCFFF7F2FEFFF784FEF5
S31500004690274B284C1B682848284D9847D4E9000129
S315000046A0D4E9002358403DF081FCD4E90023244995
S315000046B0561845EB0307C4E90067D4E9006786F09E
S315000046C01E4287F07D4382F4120283F42D0382F4A6
S315000046D0384283F4A44383F02B0382F03702C4E903
S315000046E000230020BDE8F84000F02CB800ED00E003
S315000046F0C8D004003803FE1FE047040018C30400B6
S31500004700F825FE1F1C03FE1FD402FE1FC001FE1F5C
S3150000471020F50400000D004000600040F835FE1F43
S31500004720F73DFE1F9803FE1F6002FE1F6402FE1F78
S315000047301C4804001003FE1F80490400E34FE6F402
S315000047401654E7A100F02CB882B04FF0C842936926
S31500004750D907FCD400210091009B536961F3000343
S315000047605361936A4FF0200C6CF30F239362936AA4
S315000047704FF0C04043F0800393620368009340F615
S31500004780FF714FF0C842019104E0019B013B019388
S31500004790019B13B1936A5B06F7D502B0704700BF61
S315000047A0F8B5484B1A684FF0C84400256FF38612D7
S315000047B010211A602163A56125626563C4F8045857
S315000047C0A36865F30403A3606369FF2143F0010353
S315000047D0636121616369662243F0010363612261BB
S315000047E06369992243F001036361226163690121D0
S315000047F00B4363612320FFF793FD9F232361226907
S31500004800314BD2B21A702169C9B259702069C0B24F
S3150000481098706669EF2A46F00106666101D1402963
S3150000482003D000221A809A70F8BD1728F9D1052204
S31500004830226120696369352743F0010363612761BB
S31500004840224B21691970616941F001016161A66A13
S31500004850042161F30306A662666861F303066660D7
S3150000486050262661666946F0010666611E7846F0A6
S3150000487002061E70C0B201262661206118782061EA
S31500004880606930436061216161693143616121681A
S3150000489062F3020121602261226962693243626128
S315000048A0276122691A70636933436361236843F0A1
S315000048B040032360FFF748FF636965F30003636104
S315000048C0F8BD00BF007004409C03FE1FA003FE1F3E
S315000048D008B5A8B10368C31A1A880A2A0AD95A89D8
S315000048E002B1825C9B881BB1C35C9A4238BF1A46F0
S315000048F0104608BD042A4FF00002F3D8104608BD42
S315000049003CF054FE012310B480F8283003F1CC3378
S31500004910A3FB02325209C16001EB021101EB8203D3
S31500004920C0E90413426003EB820302EB4202002457
S3150000493003EB820284608361426220465DF8044B89
S31500004940704700BF704700BF8068704710B50446C7
S3150000495038F054F9204610BD38B5D0E90154AC42C0
S3150000496011DAC16825014A5101EB04124FF0FF31FB
S315000049709360049BD360013401235160846080F806
S315000049802830002038BD8C462A460349604633F05D
S31500004990FFFF012038BD00BF9C4904002DE9F04F00
S315000049A00468DFF86490A768D0E902484F4583B0F1
S315000049B008EB041616D192464268944219DA4FEA79
S315000049C0041B1D460C9A48F80BA001340123B56060
S315000049D0F260846080F828300D9B7360002003B07D
S315000049E0BDE8F08F0C9C0094B8470028F4D0012055
S315000049F0F5E78E467046034933F0CAFF012003B03F
S31500004A00BDE8F08F9C4904005949000070B5A0F13B
S31500004A10040E0EEB820E012A14DD8C460346002698
S31500004A201C6853F8045FAC4206DA43E90154DCE93A
S31500004A300045CCE90054012673450CF1040CEFD176
S31500004A40002EE8D170BD00BF014B0360704700BF68
S31500004A50944A040070B48446E9B18968481C1CD0A5
S31500004A60DCF81840DCF80C5001EB410104EB810046
S31500004A70416805EB01118E68B34204DBC9688A42BE
S31500004A8001DC70BC70478068411C00EB400004D01C
S31500004A9004EB8000ECE7016AE2E7002070BC704797
S31500004AA090F82830002B00F0DC802DE9F04F82686A
S31500004AB0002A89B0054600F09A804FF0000380F87E
S31500004AC0283040F3D480D0E903E06969D5F8248022
S31500004AD01C461E460EF1040C894611E05EF8237052
S31500004AE040F8267049F826405CF8237048F80370B1
S31500004AF0AF680134A74206F1010603F1040312DD93
S31500004B005CF82370791CE9D1013A5EF8231040F86D
S31500004B10221049F8224048F80370AF680134A742D2
S31500004B2003F10403ECDC00EB860009EB8601BA1BFB
S31500004B30FFF76CFFD5E9051A01220023C5E9072313
S31500004B404FF0FF32CAF808200A68E868029000EBC6
S31500004B500210CAF804204068013000F083806B6AB6
S31500004B60039353F82230CAF80030AB68012B3EDDC0
S31500004B700191D1464FF0010B08E02B6A8B60894604
S31500004B802E62AB680BF1010B5B4530DD019B53F8E0
S31500004B90047F0193029B03EB07133A015C68611CD7
S31500004BA028D0039B43F82740EE6906EB4601731CA9
S31500004BB04AF821400AEB81014F60EB61D9F80030D9
S31500004BC0A342DADC484604E05AF82220A24245DC39
S31500004BD03846836803EB43025F1C0AEB8207F3D176
S31500004BE086608B60AB680BF1010B5B45CEDC09B0D0
S31500004BF0BDE8F08FD3E9020302998A5804928046F1
S31500004C00024600212846FFF725FF0024CDE905A925
S31500004C100646DDF810A00797CDF810B09946DDF8E6
S31500004C2008B00FE03768A7EB040CE24510DDFFF78C
S31500004C3011FF73681B0106465BF803301F44BC4234
S31500004C40B8BF3C4631464B4642462846002EE9D17F
S31500004C50DDE905A9079FDDF810B0A2E78B60866045
S31500004C608FE77047686A039040F822307BE7D0E907
S31500004C7004015DE770B50546FFF712FFA868D8B1D5
S31500004C802B6AAC6903EB430314EB830315D0EE6880
S31500004C90002002E014EB83030ED0D3E900524FEA62
S31500004CA0021C9A6856F80C102944884202EB42030B
S31500004CB038BF08460132EDD170BD184670BD00BF41
S31500004CC02DE9F04F06469DB0FFF7EAFED6F80880BC
S31500004CD0B8F1000F40F3C380634D00241CE0232C81
S31500004CE020DD3D2C04F11D01D4BFC9B22A21F36891
S31500004CF0200103EB04121B58D06802909068726A78
S31500004D00019052F8240000902246284631F064FFB4
S31500004D10B3680134A34209DD092CE0DC04F130015B
S31500004D20C9B2E4E704F15701C9B2E0E7002B98469F
S31500004D3040F39580706AF368043800EB880500211B
S31500004D405027AC461A6850F8045FDC682A4497423C
S31500004D50B8BF1746A142B8BF2146844503F11003E8
S31500004D60F0D105910024212550222E2107A83CF0E0
S31500004D7047FDB8F1000F70DD0022D6F80CC096464C
S31500004D80DCF80830A3423DDCDCF80C30A34239DB0A
S31500004D90736A53F82230591C34D0DCF800108E4464
S31500004DA0194401EB810103EB83031B01090193FB0A
S31500004DB0F7F391FBF7F18B4224DA07A8013B034492
S31500004DC002F11D090DF11B0002F1570B02F1300A29
S31500004DD001444FFA89F94FFA8BFB4FFA8AFA02E03F
S31500004DE099421D700ED013F9010F2E28F8D1092A09
S31500004DF02ADD232A2BDD3D2AD4BF48462A201870F7
S31500004E009942F0D1013242450CF1100CB8D10EF2A4
S31500004E10FF33002BB8BF0EF2FE739B1213481449E2
S31500004E200093092CD8BF014622464FF0000C07AB71
S31500004E3010488DF86CC031F0CFFE059B01349C42C2
S31500004E4008DCD6F808808FE750461870D8E7584631
S31500004E501870D5E71DB0BDE8F08F0023DEE700230C
S31500004E60059350277EE700BFC0490400BC490400F3
S31500004E7020C00400FC490400F8B5144605461E4649
S31500004E800F46FFF70DFE002CAB6807DBA34205DDDE
S31500004E906B6A53F8243033600020F8BD034922467C
S31500004EA0384633F075FD0120F8BD00BF0C4A0400FA
S31500004EB00120704700207047836B0BB11C211847F7
S31500004EC010B53CF073FB00BF836B0BB10221184792
S31500004ED010B53CF06BFB00BFF0B50F699BB0002F1F
S31500004EE044D0234B1A680D46064614F021FC214B8C
S31500004EF004461A682946304614F034FC237A012BFE
S31500004F0005460CD0092B1DD01846746935F0C6F835
S31500004F10194902463046A04701201BB0F0BD214684
S31500004F2002A814F039FC294608A8246814F034FCB9
S31500004F30E5B102A82B6808AA214600F047F900202F
S31500004F401BB0F0BD21460EA814F026FC294614A875
S31500004F5014F022FC23684DB12A680092384614AA40
S31500004F600EA900F085F800201BB0F0BD3CF01EFB3A
S31500004F70184C04001C4C0400B84A0400F0B50F6934
S31500004F809DB0002F4CD0274B1A680D46064614F0EC
S31500004F90CFFB254B04461A682946304614F0E2FB3F
S31500004FA0237A012B05460CD0092B1DD018467469AF
S31500004FB035F074F81D4902463046A04701201DB061
S31500004FC0F0BD214604A814F0E7FB29460AA8246888
S31500004FD014F0E2FB25B304A82B680AAA214600F0C8
S31500004FE031F900201DB0F0BD214610A897F90160E7
S31500004FF097F9007014F0D0FB2368039316AC29468A
S31500005000204614F0C9FB5DB12A68039BCDE9004236
S31500005010304610AA394600F05FF900201DB0F0BDF9
S315000050203CF0C4FA184C04001C4C0400B84A0400B6
S3150000503010B5044B044A0549044614F053FB2046B8
S3150000504010BD00BFD94E000061530000B94E0000EC
S3150000505010B5044B044A0549044614F043FB2046A8
S3150000506010BD00BF7D4F000061540000C94E000016
S315000050702DE9F04F0D681468A54283B040F09B807F
S31500005080002D40F38F80141D0E1D00229C4656F8FD
S31500005090047B54F8043BBB4240F08D8001329542BC
S315000050A0F5D1634601EB8505012451F8042F8D42A5
S315000050B002FB04F4F9D1002C71DD0C9A01945D1EFB
S315000050C0561E4FF001089C462DE08EFB0119B9F1E2
S315000050D0000F5FDB11F1804149F10009C90F41EA78
S315000050E049011F2A60DC08FA02FE0EF1FF3E4FEA74
S315000050F06E0941FA02F20EEA010E09EBD1718E45F4
S31500005100C8BF01321344426881689342B8BF134650
S315000051108B42A8BF0B4606F8013F0237019BA7EB5F
S315000051200C07BB423BDD8269C16803692F4615F94E
S3150000513001EF22EAE279AEEB0101D0F814E0002A91
S3150000514001FA09F1D4BF524200228E45BDD18EFB31
S315000051500E191A4CB9F1000FABBF4FF0804AA246A8
S315000051604FF0000B4FF0FF3BBEF1004F08BF6FF052
S315000051700041B6D01AEB010149EB0B09B9F1000F5A
S3150000518004DA6FF00044091949F10009C90F41EA30
S315000051904901A6E7DFF824A04FF0FF3BEAE703B09A
S315000051A0BDE8F08F012488E7054B064A064840F221
S315000051B067113CF003FA3CF0F9F900BF010000C0AA
S315000051C0E44A0400F44A0400504B040070B5046835
S315000051D08E4611688C4230D1002C2CDD02F1040C75
S315000051E0011D002251F8045B5CF8046BAE4224D129
S315000051F001329442F6D100EB8404012250F8041FD8
S31500005200844201FB02F2F9D1002A13DD9FED0C7AEC
S31500005210194670460023F0EC017AF5EEC07AF1EEFD
S3150000522010FA03F1010348BFF0EE477A9A42E1EC27
S31500005230017AF0DC70BD0122E8E73CF0B7F900BF67
S315000052400000000070B504688E4611688C423ED19D
S31500005250002C3ADD02F1040C011D002251F8045B1A
S315000052605CF8046BAE4232D101329442F6D100EBC7
S315000052708404012250F8041F844201FB02F2F9D192
S31500005280002A21DD1946DFED136A70460023B1EED0
S31500005290087A0BE0F5EEC07AF1EE10FA01D5F0EEE1
S315000052A0667A01339A42E1EC017A0DDDF0EC017A7F
S315000052B0F4EEC77AF1EE10FAECDD0133F1EE087A7E
S315000052C09A42E1EC017AF1DC70BD0122DAE73CF0AA
S315000052D06DF900BF00000000F8B5069C1568266849
S315000052E0B5423AD1002D35DD04F1040C02F1040E6D
S315000052F000245EF8046B5CF8047BB7422DD10134C0
S31500005300A542F6D102EB85054FF0010E52F8044F87
S31500005310AA4204FB0EFEF9D1BEF1000F19DD079A71
S315000053205C1E551E09E002328445A2EB0302B8BF9B
S315000053308446964505F801CF0BDD224614F901CFC8
S315000053408C45F0DD0232D21A8C46964505F801CF1F
S31500005350F3DCF8BD4FF0010EE1E73CF027F900BFA2
S315000053602DE9F043D1F8108083B0B8F1000F6AD070
S31500005370C468236807469B69002220460E46984764
S315000053800546C0B123683146DB69002220469847AE
S315000053900646E0B12B78092B25D0236829462046FE
S315000053A05B6A9847236820465B6A31469847002027
S315000053B003B0BDE8F083254B7C69254A0093384647
S315000053C024497B23A047012003B0BDE8F083224B8C
S315000053D07C691F4A009338461E497E23A047012058
S315000053E003B0BDE8F08395ED037AD0ED037AC7EEFE
S315000053F0277A08F1140708F1180917EE900A3AF00F
S31500005400EBFB41EC100B3846494632F005FFD6ED72
S31500005410037A9FED120A376980EE270A38F014FEE8
S315000054206FF07F02FDEEC07A17EE903A3B4493424E
S31500005430B8BF1346C8F804302B69C8E903377F2381
S31500005440C8F80830A9E73CF0B1F800BF044C0400E6
S31500005450B04B0400EC4B0400845004000000000034
S315000054602DE9F0430F6983B0002F48D0C668336832
S3150000547005469B69002230469847044698B3037850
S31500005480092B08D0336830465B6A214698470020CE
S3150000549003B0BDE8F083D0ED037AB1EE087AC7EE2B
S315000054A0277A17EE900A3AF097FB41EC100B38F08A
S315000054B025FB256959EC108B28463AF07BFB4246C2
S315000054C04B463AF02BFA3AF079FE10F17F0F04DAE8
S315000054D06FF07F0038707D70D4E77E28D8BF40B269
S315000054E0F8DD7F20F6E7074B6C69074A00932846EC
S315000054F006499123A047012003B0BDE8F0833CF0A4
S3150000550055F800BF044C0400B04B0400EC4B0400FB
S31500005510836B0BB13C21184710B53CF047F800BF30
S315000055202DE9F04FC56A066B8BB0B542159C049504
S31500005530059600F37B810F68002F40F3618101EB34
S315000055408707012651F8045FB94205FB06F6F9D133
S315000055501F68002F40F35A8103EB8707012553F894
S31500005560041F9F4201FB05F5F9D12768002F40F380
S315000055704581234604EB8707012153F8044F9F42D8
S3150000558004FB01F1F9D1B54240F05081A94240F047
S315000055904D814468A64B02949C42C0F2478147F66F
S315000055A0FE73856803959C4200F340812B444FF6B9
S315000055B0FC74A34200F23A81002940F31C81D0F822
S315000055C02080A2F1020E0EEB41034FF00109099370
S315000055D0C8F10003069309FA03F3013B079343FA64
S315000055E009F30893149BA3F1020A169B023BD0E928
S315000055F00674019385E085FB0465002DC0F2E48006
S315000056004FF080414FF0000C711845EB0C05002D52
S3150000561004DA6FF00043C91845F10005C90F41EAE5
S315000056204503B8F1000F00F3F38018F11F0FC0F225
S31500005630F6800799456A01EA0306089901EBD37CCF
S3150000564006990B416645C8BF0133AA42866A7AD0DD
S3150000565085FB02C5002DC0F2C6801CF1804C45F1C9
S3150000566000054FEADC7C4CEA4505002EC6F1000237
S3150000567000F3CE801F36C0F2D28009FA02F101395A
S315000056804FEA610B45FA02F229400BEBD575A942A8
S31500005690C8BF0132D0E9041513448B4274D081FB94
S315000056A003610029C0F2A38016F1804641F1000192
S315000056B0F60F46EA4101002DC5F1000200F3A8806D
S315000056C01F35C0F2AC8009FA02F3013B4FEA630CC6
S315000056D041FA02F20B400CEBD1718B42C8BF01328A
S315000056E0C3681A44049B9A42B8BF1A46059B9A425D
S315000056F0A8BF1A46019B23F8022F0193099B9E45DA
S3150000570079D0029B3EF9025F3AF9022F1D44039BB2
S31500005710BD401A44A54202FA07F27FF46CAF454B2E
S3150000572084FB0465002DB3BF19464FF080414FF04E
S31500005730000C4FF0FF3CB4F1004F08BF6FF0004380
S315000057403FF46FAF60E782FB02C5002D3949A6BF63
S315000057504FF0000B4FF080414FF0FF3BB2F1004F8E
S3150000576008BF6FF0004580D01CEB010145EB0B0B29
S31500005770BBF1000F04DA6FF0004289184BF1000B01
S31500005780C90F41EA4B0570E783FB03610029294AEB
S31500005790A6BF4FF0000C4FF080424FF0FF3CB3F134
S315000057A0004F08BF6FF0004185D0B21841EB0C0CDA
S315000057B0BCF1000F04DA6FF00043D2184CF1000C74
S315000057C0D20F42EA4C0176E71A4BF61865F100054E
S315000057D0002D04DA6FF00043F61845F10005F60FC8
S315000057E046EA45031DE713494FF0FF3BBCE7114A64
S315000057F04FF0FF3CD9E70BB0BDE8F08F0121C2E6C0
S315000058001F68002F4FF001063FF7A6AE0125ACE654
S31500005810094B0A4A0A484FF4B3713BF0CFFE094BD5
S31500005820064A074840F267113BF0C8FE3BF0BEFE51
S315000058300280FFFF010000C0204C0400F44A04006F
S31500005840504B0400E44A040038B553689469184480
S3150000585093681944D369A040834201FA04FC146A90
S3150000586000F08B8080FB030100297ADB4FF0804E2D
